:100000000C9462000C948A000C948A000C948A0070
:100010000C948A000C948A000C948A000C948A0038
:100020000C94A9040C948A000C948A000C948A0005
:100030000C948A000C948A000C948A000C948A0018
:100040000C9407040C948A000C9477040C945104CB
:100050000C948A000C948A000C948A000C948A00F8
:100060000C948A000C948A000000000024002700F1
:100070002A0000000000250028002B0000000008D6
:10008000000201000003040700000000000000005F
:1000900000000000230026002900040404040404D6
:1000A0000404020202020202030303030303010227
:1000B00004081020408001020408102001020408F6
:1000C00010209E0511241FBECFEFD8E0DEBFCDBFAC
:1000D00022E0ACE1B1E001C01D92AF3CB207E1F714
:1000E00011E0A0E0B1E0ECEAFEE102C005900D9263
:1000F000AC31B107D9F710E0C2E6D0E004C02197D7
:10010000FE010E944E0FC136D107C9F70E94D605E5
:100110000C94540F0C940000A8ECB1E011968C9351
:10012000119790E0FC01E255FF4FE4911496EC9397
:100130001497FC01E656FF4FE491F0E0EE0FFF1F2D
:10014000E057FF4F8591949113969C938E9312974D
:1001500008950F931F93CF93DF93E091C202F09124
:10016000C30240912A01808510E0481708F064C05E
:10017000142F11700091290101114FC0842F90E0BC
:10018000880F991FE80FF91F0184F285E02D2CEEEE
:100190003FEF112311F024E130E0C0912701D0910D
:1001A00028012C0F3D1FC90163E470E00E94210F5C
:1001B000E617F70760F0C90168E270E00E94210FBE
:1001C0006F5F7F4F81E090E06E177F0710F52C0F77
:1001D0003D1FC90163E470E00E94210FE617F70795
:1001E00050F0C90168E270E00E94210F6F5F7F4FFD
:1001F0006E177F0760F42C0F3D1FC90163E470E0A8
:100200000E94210FE617F707E8F41FEF15C082E000
:1002100090E090932601809325010F5F00932901C0
:1002200080912501909126010817190628F0109257
:1002300029014F5F40932A01812FDF91CF911F91B8
:100240000F910895C90168E270E00E94210F6F5F6D
:100250007F4F6E177F07C8F283E090E0DACF90E01F
:10026000FC01E458FF4F2491FC01E255FF4F34910B
:10027000FC01E656FF4FE491EE23C9F0222339F04A
:10028000233001F1A8F4213019F1223029F1F0E0F6
:10029000EE0FFF1FEE58FF4FA591B4918FB7F89462
:1002A000EC91611126C030953E233C938FBF089599
:1002B0002730A9F02830C9F0243049F78091800018
:1002C0008F7D03C0809180008F7780938000DFCF87
:1002D00084B58F7784BDDBCF84B58F7DFBCF8091D4
:1002E000B0008F778093B000D2CF8091B0008F7D27
:1002F000F9CF3E2BDACFAF92BF92CF92DF92EF923F
:10030000FF920F931F93CF93DF936C017B018B01BF
:10031000040F151FEB015E01AE18BF08C017D1070F
:1003200059F06991D601ED91FC910190F081E02D99
:10033000C6010995892B79F7C501DF91CF911F91EE
:100340000F91FF90EF90DF90CF90BF90AF90089506
:10035000FC01538D448D252F30E0842F90E0821BCB
:10036000930B541710F0CF96089501970895FC0150
:10037000918D828D981761F0A28DAE0FBF2FB11DA8
:100380005D968C91928D9F5F9F73928F90E0089500
:100390008FEF9FEF0895FC01918D828D981731F0BA
:1003A000828DE80FF11D858D90E008958FEF9FEF0E
:1003B0000895FC01918D228D892F90E0805C9F4FE4
:1003C000821B91098F73992708958BE291E00E9417
:1003D000D90121E0892B09F420E0822F089580E0E3
:1003E00090E0892B29F00E94E50181110C94000016
:1003F0000895FC01A48DA80FB92FB11DA35ABF4FBA
:100400002C91848D90E001968F739927848FA68913
:10041000B7892C93A089B1898C91837080648C9367
:10042000938D848D981306C00288F389E02D808116
:100430008F7D80830895EF92FF920F931F93CF9348
:10044000DF93EC0181E0888F9B8D8C8D98131AC00F
:10045000E889F989808185FF15C09FB7F894EE89F6
:10046000FF896083E889F989808183708064808353
:100470009FBF81E090E0DF91CF911F910F91FF909E
:10048000EF900895F62E0B8D10E00F5F1F4F0F7346
:100490001127E02E8C8D8E110CC00FB607FCFACF01
:1004A000E889F989808185FFF5CFCE010E94F901A5
:1004B000F1CFEB8DEC0FFD2FF11DE35AFF4FF082D2
:1004C0009FB7F8940B8FEA89FB8980818062CFCF38
:1004D000CF93DF93EC01888D8823B9F0AA89BB897B
:1004E000E889F9898C9185FD03C0808186FD0DC066
:1004F0000FB607FCF7CF8C9185FFF2CF808185FF87
:10050000EDCFCE010E94F901E9CFDF91CF9108959F
:10051000FC019B0124513109C90163E470E00E9490
:10052000210FE617F70758F0C90168E270E00E9452
:10053000210F6F5F7F4F81E06E177F0708F480E027
:100540000895FC019B012C5E3F4FC90163E470E0FC
:100550000E94210FE617F70758F0C90168E270E022
:100560000E94210F6F5F7F4F81E06E177F0708F4B5
:1005700080E008952F923F924F925F926F927F9208
:100580008F929F92AF92BF92CF92DF92EF92FF92A3
:100590000F931F93CF93DF9300D01F92CDB7DEB799
:1005A00089832A011901862F90E0880F991F0996E7
:1005B0006091C2027091C302860F971F9B838A834A
:1005C000EE20A1F1912CC12CD12C760199819916A4
:1005D00009F477C0B201EA81FB81808191810E9498
:1005E000A102882309F457C0EA81FB81A280B3806D
:1005F000B101C5010E948802882369F0CC0CDD1C82
:10060000EE1CFF1C6894C0F88A819B8104969B8332
:100610008A839394DBCFB801C5010E9488028823A6
:10062000D1F1CC0CDD1CEE1CFF1CEECF812C912CEB
:1006300054018394C12CD12C76019981992309F41A
:1006400040C0B201EA81FB81808191810E94A102B8
:10065000882309F1EA81FB8162807380B101C301C3
:100660000E948802882389F0C828D928EA28FB2814
:100670008A819B8104969B838A83880C991CAA1C7F
:10068000BB1C998191509983D8CFB801C3010E94B6
:1006900088028111EDCF0F900F900F90DF91CF91D5
:1006A0001F910F91FF90EF90DF90CF90BF90AF9090
:1006B0009F908F907F906F905F904F903F902F9082
:1006C0000895C092BE02D092BF02E092C002F092A2
:1006D000C10281E0E0CFFC0101900020E9F73197F1
:1006E000AF01481B590BBC018BE291E00C947B01DC
:1006F0003F924F925F926F927F928F929F92AF92B2
:10070000BF92CF92DF92EF92FF920F931F93CF93FE
:10071000DF9300D000D000D0CDB7DEB7382E5A839B
:1007200049833C832B8338010091C2021091C3029C
:10073000862F90E0880F991F0996800F911F9E8346
:100740008D83812C912C54018394C12CD12C760162
:10075000332009F452C0ED81FE81408051806981CF
:100760007A81C2010E94A102882341F1C828D928B8
:10077000EA28FB282D813E812E5F3F4FF8018085BE
:1007800090E0880F991F0996800F911F281739074D
:1007900068F4B301ED81FE81828193810E94880219
:1007A000882399F02D813E812C5F3F4F880C991C46
:1007B000AA1CBB1C3A943E832D83CACF6B817C81DB
:1007C000C2010E94A1028111D5CF26960FB6F894DE
:1007D000DEBF0FBECDBFDF91CF911F910F91FF9074
:1007E000EF90DF90CF90BF90AF909F908F907F90D1
:1007F0006F905F904F903F900895C092BE02D0924C
:10080000BF02E092C002F092C10281E0DECF1F92EF
:100810000F920FB60F9211242F933F938F939F93B4
:10082000AF93BF938091210190912201A091230168
:10083000B09124013091200123E0230F2D3758F58A
:100840000196A11DB11D2093200180932101909359
:100850002201A0932301B093240180911C01909167
:100860001D01A0911E01B0911F010196A11DB11D96
:1008700080931C0190931D01A0931E01B0931F0152
:10088000BF91AF919F918F913F912F910F900FBE8C
:100890000F901F90189526E8230F0296A11DB11DF9
:1008A000D2CF1F920F920FB60F9211242F933F9326
:1008B0004F935F936F937F938F939F93AF93BF9368
:1008C000EF93FF938BE291E00E94F901FF91EF918A
:1008D000BF91AF919F918F917F916F915F914F9158
:1008E0003F912F910F900FBE0F901F9018951F9260
:1008F0000F920FB60F9211242F938F939F93EF9324
:10090000FF93E0913B01F0913C018081E091410136
:10091000F091420182FD1BC09081809144018F5F64
:100920008F7320914501821741F0E0914401F0E07E
:10093000E55DFE4F958F80934401FF91EF919F916C
:100940008F912F910F900FBE0F901F90189580815F
:10095000F4CF1F920F920FB60F9211242F933F9353
:100960004F935F936F937F938F939F93AF93BF93B7
:10097000EF93FF93E091CA01F091CB0190818091B8
:10098000CC0198232091CD013091CE012F3F320729
:1009900031F02F5F3F4F3093CE012093CD018091F6
:1009A000C801811135C0911116C02091CD0130913F
:1009B000CE012536310558F01092CF013093D20187
:1009C0002093D10181E08093D0018093C8011092DF
:1009D000CE011092CD018091B202813041F480911C
:1009E000B102911161C061E0811161C02D9AFF9146
:1009F000EF91BF91AF919F918F917F916F915F9197
:100A00004F913F912F910F900FBE0F901F9018950F
:100A10008091C8018130A1F49923E9F2E091D001DD
:100A20008E0F8093D001F0E0EE0FFF1FE853FE4FD2
:100A30002091CD013091CE013287218782E0C5CF50
:100A40008091C801823039F5911119C0E091D0012F
:100A500081E0E03720F08093CF0183E0B6CF8E0FA6
:100A60008093D001F0E0EE0FFF1FE853FE4F20917E
:100A7000CD013091CE013287218781E0A6CF209130
:100A8000CD013091CE012536310508F4A4CF83E0A5
:100A90008093C801A0CF8091C801833009F09BCF1B
:100AA000992309F494CF97CF882321F060E00E9426
:100AB0002F019DCF2D989BCFEF92FF920F931F9305
:100AC000CF93DF93EC01F62F8A01790190E080E06B
:100AD00030E0E0E0DE01AE0FB11D2C91222341F0A9
:100AE000320F2E9F800D911D11241C92FE1315C0F4
:100AF000332399F0532F5695850F911D632F70E086
:100B00000E94210FDE01A60FB11D3C93D8013C913C
:100B100031110EC06C9390E080E0EF5FFE17D0F6CD
:100B200081E0DF91CF911F910F91FF90EF90089599
:100B3000D7013C91332371F380E0F3CFEBE2F1E096
:100B40001382128288EE93E0A0E0B0E08483958364
:100B5000A683B78384E091E09183808385EC90E065
:100B60009587848784EC90E09787868780EC90E077
:100B7000918B808B81EC90E0938B828B82EC90E068
:100B8000958B848B86EC90E0978B868B118E128EE2
:100B9000138E148E88EC91E09093C3028093C2026E
:100BA00080E00E948C001092B1020895CF93DF93F1
:100BB000CDB7DEB7E8970FB6F894DEBF0FBECDBF56
:100BC000789484B5826084BD84B5816084BD85B528
:100BD000826085BD85B5816085BD80916E00816034
:100BE00080936E00109281008091810082608093DA
:100BF00081008091810081608093810080918000DC
:100C00008160809380008091B10084608093B10006
:100C10008091B00081608093B00080917A00846000
:100C200080937A0080917A00826080937A0080912C
:100C30007A00816080937A0080917A008068809346
:100C40007A001092C100E0913B01F0913C0182E0FA
:100C50008083E0913701F09138011082E0913901F1
:100C6000F0913A018FEC808310924301E0913F01B3
:100C7000F091400186E08083E0913D01F0913E01DA
:100C8000808180618083E0913D01F0913E0180810F
:100C900088608083E0913D01F0913E018081806811
:100CA0008083E0913D01F0913E0180818F7D8083C2
:100CB00082E191E00E946B0388E191E00E946B0366
:100CC0008BE00E948C001092B1028091B202816090
:100CD0008093B202EBEBF0E02491E7EAF0E084913C
:100CE000882399F090E0880F991FFC01E859FF4F85
:100CF000A591B491FC01EE58FF4F859194918FB767
:100D0000F894EC91E22BEC938FBF8091C90190E0B5
:100D1000FC01E255FF4F249186569F4FFC018491C0
:100D20008823C9F090E0880F991FFC01E859FF4F14
:100D300045915491FC01EE58FF4FA591B4919FB796
:100D4000F894FA0180812095822380838C91E22F90
:100D5000E823EC939FBF82E08093B0008093B100C2
:100D600084E68093B3008093B4001092B200809127
:100D7000C801833011F41092C80184E080937000A0
:100D80009E012F5F3F4F2901BAE06B2E10E2212E0A
:100D9000312C8091C801833009F0F5C08091CF01DA
:100DA000882309F45CC01092CF011092D00180E436
:100DB0008093BD021092B4021092B3021092B80256
:100DC0001092B7021092B6021092B5021092BE02B3
:100DD0001092BF021092C0021092C1021092BC0287
:100DE0001092BB028091BD0286FDA3C0E091C202B9
:100DF000F091C3022085822F8F7B843009F0F3C0ED
:100E000083859485865891098C35910508F0EBC04F
:100E100085859685243009F049C08197489708F068
:100E2000E2C0878590890897089708F0DCC081E0C8
:100E30008093BD028091C6029091C7029093B60242
:100E40008093B5028091CA029091CB029093B80230
:100E50008093B7028091C4029091C502F6C11092AE
:100E6000BD028091B3029091B4029093C502809329
:100E7000C4028091B7029091B802B0E0A0E08093E4
:100E8000CA029093CB02A093CC02B093CD02809182
:100E9000B5029091B602B0E0A0E08093C6029093B4
:100EA000C702A093C802B093C90284CF82549109AB
:100EB0008F9708F098C0E12C00E312E020E936E0BB
:100EC00040E352E063E080E20E94BA02882309F422
:100ED0008AC0E091C202F091C302E157FF4F8081C6
:100EE00091810897089708F07EC08091BE0290918A
:100EF000BF024091C0025091C102242F30E03093D4
:100F0000B8022093B7029C012E3E67E8360709F02D
:100F100047C085E190E09093B4028093B302852F9F
:100F200090E09093B6028093B5023092BC0220927A
:100F3000BB022091B7023091B80250E040E019A204
:100F40008E010F5D1F4FCA01B9012AE030E040E079
:100F500050E00E94E50E605DF80162938F0121155B
:100F600031054105510579F7309719F0CF010E94FD
:100F70006B0388E191E00E946B038091C80183308C
:100F800011F41092C80180E090E0892B09F401CFA0
:100F90000E94E501882309F4F7CE0E940000F4CEF8
:100FA0009095891310C090E09093B6028093B5029B
:100FB000852F809548130CC088E090E09093B40290
:100FC0008093B302B2CF3093B6022093B502F0CF34
:100FD00084E190E09093B4028093B3024093B7020F
:100FE0005093B802A2CFE091C202F091C302808573
:100FF000843609F0B5C083859485C397859708F03A
:10100000AFC0858596854A97439708F0A9C0E12C23
:1010100000EB11E020E135E040EB51E063E080E1DE
:101020000E94BA02882309F49BC0F090BE02CF2C24
:10103000D090BF02F9E0AF2EB12C82E0C81680E25A
:10104000D80619F1EDE0AE2EB12C9AEAC9169AE550
:10105000D906D9F07CE0A72EB12CA4E5CA16A2E3EC
:10106000DA0699F06BE0A62EB12CB3E0CB16B1E016
:10107000DB0659F0AEE0AA2EB12CE3E2CE16EBEC83
:10108000DE0619F05AE0A52EB12CFD248F2D829595
:101090008F70F826FF2DFF70FF2EE12C00EB11E082
:1010A00020E135E040EB51E063E280E20E94BA02C9
:1010B000882309F455C08091BE029091BF02A0918F
:1010C000C002B091C1029C0144E0369527954A9533
:1010D000E1F73093B6022093B5022A2F30E0309327
:1010E000B8022093B702282F2A272927382F3F70CC
:1010F000F31619F034E03093BD023AE0A316B104C0
:1011000079F03091BD0230613093BD024091B90257
:101110005091BA02C42AD52AD092BA02C092B9021A
:101120002B1729F08091BD0284608093BD02E0916D
:10113000C202F091C3028185928588329A4028F4D8
:101140008091BD0281608093BD02B092B402A092F2
:10115000B30280E390E09093BC028093BB02E9CE9F
:10116000E091C202F091C3028085803209F075C01F
:10117000EE24E3940CE013E02CE137E044E051E08E
:1011800061E08FE00E94BA02882309F466C0E09112
:10119000C202F091C302DF01A95BBF4F8D919C9108
:1011A0000497059708F059C080E88093BD024091EC
:1011B000BE025091BF026091C0027091C102142F13
:1011C0001370DB01CA0102E0B695A7959795879544
:1011D0000A95D1F79093B5021092B6029C0133277D
:1011E0003093B8022093B7022185328525363440EA
:1011F00088F52091CE022F5F2093CE0240FF11C0D0
:1012000032E83093BD023091CA028095381719F048
:1012100086E88093BD02832F90E09093B80280937C
:10122000B702223028F08091BD0281608093BD0218
:101230008FE090E09093BC028093BB02115082E15A
:1012400090E0123010F083E090E09093B40280932D
:10125000B3026FCE1092CE02EBCFE091C202F091BA
:10126000C3028385948584974A9708F055C02085EA
:101270002A3129F02A3219F0203209F04DC0858533
:1012800096850897089708F047C030E0C901019794
:1012900097FDC9019595879508E512E028E532E0AC
:1012A00040EB54E063E00E9478038823A9F1809129
:1012B000BE029091BF02A091C002B091C102282F3E
:1012C0002F77E7E0B695A79597958795EA95D1F79B
:1012D000E091C202F091C3024185528544385340E7
:1012E00018F431E03093BD0230E03093B80220931F
:1012F000B7029093B6028093B502208530E0C90111
:10130000019797FDC901959587959093BC028093AD
:10131000BB0283E190E099CF81E080932A0189E7C5
:1013200093E09093280180932701109229010E9455
:10133000A900813009F06AC0C12CD12C760110E0DF
:10134000E091C202F091C302908580912A01891731
:10135000E0F40E94A900082F0E94A90001110BC00F
:10136000813009F053C0CC0CDD1CEE1CFF1C6894CE
:10137000C0F81F5FE5CF013009F048C0811146C0B9
:10138000CC0CDD1CEE1CFF1CF4CF812F90E0909361
:10139000BC028093BB02C092BE02D092BF02E09218
:1013A000C002F092C1028C2D8F7390E09093B8022E
:1013B0008093B702960146E0369527954A95E1F766
:1013C0002F7133273093B6022093B502960122275E
:1013D0003071232B31F4805C9F4F9093B80280933F
:1013E000B70280E88093BD02D3FE03C088E88093F3
:1013F000BD0281859285833E984028F48091BD028C
:1014000081608093BD028FE090E01FCFE091C20227
:10141000F091C3028385948588974D9708F046C064
:10142000858596850C970B9708F040C083E08093E4
:101430002A018CEB91E09093280180932701109270
:1014400029010E94A900813089F50E94A900182F66
:1014500081112CC0C12CD12C7601E091C202F091F7
:10146000C302908580912A01891708F071C00E94FB
:10147000A900B82E1330B1F00E94A900082F133034
:1014800021F40E94A900081311C0B1E0BB1256C09C
:1014900001110CC0CC0CDD1CEE1CFF1C6894C0F8C4
:1014A0001F5FDBCF0E94A900B81631F3E091C202A2
:1014B000F091C30220852C3311F0243051F4838540
:1014C00094858638910508F48CC0833E910508F414
:1014D000A5C0E091C202F091C3028085843209F474
:1014E0000AC1823209F035C1818592858C3E9C45C6
:1014F00008F01FCD838594850897079708F019CDCC
:10150000E55BFF4F808191810897079708F011CD27
:1015100081E08093BD028091C6029091C7029093B2
:10152000B6028093B5028091CA029091CB0290934B
:10153000B8028093B70285E090E087CEB110B6CFB5
:10154000013009F0B3CFCC0CDD1CEE1CFF1CA8CF82
:10155000812F90E09093BC028093BB02C092BE02A8
:10156000D092BF02E092C002F092C1022C2D30E076
:101570008D2D1432F8F480E88093BD023093B802C8
:101580002093B7028D2D90E09093B6028093B50220
:10159000E0FE03C088E88093BD0281859285833791
:1015A0009A4028F48091BD0281608093BD0280E161
:1015B00090E04BCE90E99093BD02D7FE03C098E92E
:1015C0009093BD023093B8022093B7028F7790E0DA
:1015D0009093B6028093B502F092BA02E092B902FB
:1015E000DCCF8D32910508F474CF6CE175E2B7E081
:1015F000CB2ED12C8D34910508F06BCF8585968547
:10160000243091F44D97469708F063CF87859089F1
:101610000797089708F05DCF81E80ACC68E670E18B
:10162000A6E0CA2ED12CEACF0E948802882309F4B2
:1016300050CFEE24E39406E212E02CE236E044EFD1
:1016400051E063E08CE10E94BA02882309F441CFA3
:10165000E091C202F091C302E158FF4F8081918175
:101660000797089708F035CF80E88093BD028091F6
:10167000BE029091BF02A091C002B091C1028C0144
:101680009D0144E036952795179507954A95D1F722
:10169000B8011093B8020093B7028C019D0154E188
:1016A00036952795179507955A95D1F71093B60259
:1016B0000093B50244E050E020E0362F3F70230F46
:1016C00014E0769567951A95E1F741505109A9F70D
:1016D00082278F709927AA27BB27892B8A2B8B2BD0
:1016E00019F084E88093BD02D092B402C092B30294
:1016F0008CE190E030CD838594858D5791098735B5
:10170000910538F585859685CE978C9710F5E12C57
:101710000EE012E02AE236E04EE052E063E080E1C3
:101720000E94BA028823A9F08091BE022091BF02D4
:1017300030E03093B8022093B70290E09093B60265
:101740008093B50280E190E09093BC028093BB024D
:10175000F2CEE091C202F091C3028085982F9F7D66
:10176000943419F0863009F08DC0238534852254D5
:1017700031092F32310508F085C025853685215481
:1017800031092F32310508F07DC08630B1F481E097
:101790008093BD028091C6029091C7029093B602D9
:1017A0008093B5028091CA029091CB029093B802C7
:1017B0008093B70281E190E048CDE12C09E212E08C
:1017C0002BE736E049E252E063E08436B9F580E188
:1017D0000E94BA02882309F455C08091BE029091FC
:1017E000BF029093B6028093B5022BE736E049E240
:1017F00052E063E080E20E94BA02882309F442C00A
:101800009091BE023091BF022091C0028091C1022E
:101810002095821731F09095931719F094E09093EA
:10182000BD02982F832F9093B8028093B70280E374
:1018300090E09093BC028093BB02BCCF80E20E94F8
:10184000BA028823F9F08091C0023091C102209140
:10185000BE029091BF022093B5029093B602932FDF
:10186000909589130AC090E09093B8028093B702D4
:101870003092BC022092BB029DCF8093B70230937E
:10188000B802F6CFE091C202F091C302838594853D
:101890002085243459F50B970A9740F58585968560
:1018A0008A974E9718F5EE24E3940EEE12E026E6A2
:1018B00038E04EEE52E063E080E20E94BA028823F4
:1018C000A9F0E091C202F091C302E157FF4F80817D
:1018D00091810B970A9750F480E88093BD02309273
:1018E000BC022092BB0289E190E0AFCCE091C20241
:1018F000F091C3022085838594850297049708F0B0
:1019000061C0243209F05EC0858596850F970C97DB
:1019100008F058C0EE24E39407E011E029E232E039
:101920004EE950E063E080E10E94BA02882309F4A6
:1019300049C0E091C202F091C302DF01A15BBF4F39
:101940008D919C9102970497E8F580E88093BD0201
:101950004091BE029091BF02242F392F592F5295EA
:101960005F709F70A4E036952795AA95E1F72F70D8
:101970004F708FE0852789278227481719F084E860
:101980008093BD0261857285683F714128F4809122
:10199000BD0282608093BD025093B5021092B602E0
:1019A00060E1969FC0011124822B9093B80280932E
:1019B000B70287E190E09093B4028093B30280E194
:1019C00090E0C9CBE091C202F091C30220858385EB
:1019D00094850F970C97B8F52432A9F585859685DF
:1019E0004597419780F5E12C04ED11E02CEB35E0B3
:1019F00048E052E063E080E10E94BA02882319F1D6
:101A0000E091C202F091C302DF01A15BBF4F8D9153
:101A10009C9108970797B8F48091BE029091BF02FD
:101A200098279F3F81F421853285223E344018F467
:101A300091E09093BD0290E09093B8028093B7023A
:101A400086E190E0B8CFE090C202F090C302D701E7
:101A500018968C91803709F056C06701F701E4525F
:101A6000FF4FF8AFEFAB20E030E040E010E000E0E7
:101A7000912C812C712CD6011B96ED91FC911C9719
:101A80001D96AD90BC90C501BF010E94210FDB01E6
:101A9000EA0DFB1D71973E97C8F5512F602F792DE8
:101AA000882D972D01E00E94350FE32FF42F152F7D
:101AB000062F972E882E792E129708F4216084E045
:101AC000C80ED11CAFA9B8ADAC15BD05A1F688E113
:101AD00090E09093B4028093B30287E390E09093F8
:101AE000BC028093BB0280E18093BD022093B902C7
:101AF000E093BA02F093BE025093BF026093C0021B
:101B00007093C10216CA843108F4E8C082E3F2017E
:101B100011928A95E9F7D70118962C912250330B30
:101B200060E044E0842F90E0821793079CF4880FD4
:101B3000991FF701E80FF91F8185823348F4F201FC
:101B4000E80FF11D90819F5F9083681708F4682F5C
:101B50004E5FE8CF1EAA1DAA9E012B5C3F4FAE012F
:101B60004A5C5F4FC2010E945C05882309F4B6C03D
:101B700082E3F20111928A95E9F7A091C202B09135
:101B8000C30218962C9118972250330B60E043E063
:101B9000842F90E0821793079CF4880F991FFD0112
:101BA000E80FF91F8185823348F4F201E80FF11D37
:101BB00090819F5F9083681708F4682F4E5FE8CF8D
:101BC0001CAA1BAA9E012D5C3F4FAE014C5C5F4FCF
:101BD000C2010E945C05E091C202F091C302F08450
:101BE000F6948F2D90E09C01225031093093BC0275
:101BF0002093BB02039745E0969587954A95E1F7B8
:101C0000D82E8DA9811135C08BA9882309F466C00F
:101C1000FA94FA9423E0C22EE12C32E3B32E0EA9FB
:101C20000B9D800111242CA92B9D900111244BA9FF
:101C30004B9DA00111248F2DF0E2FF1508F480E2E6
:101C40006C2D0E947803882309F448C020E4C20E5A
:101C5000E39430EEF30EDE1410F78CA99BA98927CC
:101C6000982789279093BA028093B90282E090E086
:101C7000ECCAFA94FA9483E0B82EC12C92E3A92E10
:101C80000EA90A9D800111242DA92A9D90011124DD
:101C90004CA94A9DA00111248F2D60E26F1508F414
:101CA00080E2E12C6B2D0E94BA028823B9F080E417
:101CB000B80EC39490EEF90EDC1410F78EA99DA90E
:101CC0008927982789279093BA028093B902A1E0C7
:101CD000B0E0B093B402A093B3022BC90091C2024A
:101CE0001091C302D8011896EC91E63008F421C98E
:101CF000FF24F39425EC3DE94CE151E8F0E08F2D11
:101D000090E0BC016E5F7F4F6E177F07ECF5660FAA
:101D1000771FD801A60FB71F19966D917C91880F78
:101D2000991FD801A80FB91F19968D919C91669E95
:101D30006001679ED00C1124DC01AA0FBB1FAA0F03
:101D4000BB1FAA0FBB1FE12CCA16DB0690F0689ED2
:101D5000D001699EB00D1124CB0163E0880F991F5B
:101D60006A95E1F7EE24E394A817B90710F482E02E
:101D7000E82E63E971E080E091E00E94D50E9B01BE
:101D8000AC012E25F394BBCF2093BE023093BF024B
:101D90004093C0025093C1023092BC022092BB0219
:101DA0001092B4021092B302C4C8DB018F939F93C8
:101DB0000E94070FBF91AF91A29F800D911DA39F1D
:101DC000900DB29F900D11240895A1E21A2EAA1B26
:101DD000BB1BFD010DC0AA1FBB1FEE1FFF1FA217DB
:101DE000B307E407F50720F0A21BB30BE40BF50BD8
:101DF000661F771F881F991F1A9469F76095709561
:101E0000809590959B01AC01BD01CF0108950E9482
:101E1000120FA59F900DB49F900DA49F800D911D52
:101E200011240895A29FB001B39FC001A39F700D1C
:101E3000811D1124911DB29F700D811D1124911DD2
:101E40000895AA1BBB1B51E107C0AA1FBB1FA61701
:101E5000B70710F0A61BB70B881F991F5A95A9F753
:101E600080959095BC01CD010895002E083090F02A
:101E7000982F872F762F652F542F432F322F22270D
:101E80000850F4CF220F331F441F551F661F771FC2
:101E9000881F991F0A95B2F7002D0895EE0FFF1FB6
:0C1EA0000590F491E02D0994F894FFCF18
:101EAC00000000001B027B01A8016802D901B701E8
:0C1EBC00CB0148656C6C6F000D0A000043
:00000001FF
