:100000000C9462000C948A000C948A000C948A0070
:100010000C948A000C948A000C948A000C948A0038
:100020000C9411070C948A000C948A000C945506C9
:100030000C948A000C948A000C948A000C948A0018
:100040000C94B3050C948A000C9423060C94FD05C3
:100050000C948A000C948A000C948A000C948A00F8
:100060000C948A000C948A000000000024002700F1
:100070002A0000000000250028002B0000000008D6
:10008000000201000003040700000000000000005F
:1000900000000000230026002900040404040404D6
:1000A0000404020202020202030303030303010227
:1000B00004081020408001020408102001020408F6
:1000C0001020060811241FBECFEFD8E0DEBFCDBF41
:1000D00011E0A0E0B1E0E8E7F5E202C005900D9282
:1000E000A832B107D9F723E0A8E2B1E001C01D9220
:1000F000A430B207E1F710E0C2E6D0E004C02197D7
:10010000FE010E94B412C136D107C9F70E946E08E1
:100110000C94BA120C940000AAEFB1E011968C93E3
:10012000119790E0FC01E255FF4FE4911496EC9397
:100130001497FC01E656FF4FE491F0E0EE0FFF1F2D
:10014000E057FF4F8591949113969C938E9312974D
:1001500008950F931F93CF93DF93E091F702F091EF
:10016000F80240913701808510E0481708F064C01C
:10017000142F11700091360101114FC0842F90E0AF
:10018000880F991FE80FF91F0184F285E02D2CEEEE
:100190003FEF112311F024E130E0C0913401D09100
:1001A00035012C0F3D1FC90163E470E00E948712E6
:1001B000E617F70760F0C90168E270E00E94871255
:1001C0006F5F7F4F81E090E06E177F0710F52C0F77
:1001D0003D1FC90163E470E00E948712E617F7072C
:1001E00050F0C90168E270E00E9487126F5F7F4F94
:1001F0006E177F0760F42C0F3D1FC90163E470E0A8
:100200000E948712E617F707E8F41FEF15C082E097
:1002100090E090933301809332010F5F0093360199
:1002200080913201909133010817190628F010923D
:1002300036014F5F40933701812FDF91CF911F919E
:100240000F910895C90168E270E00E9487126F5F04
:100250007F4F6E177F07C8F283E090E0DACFCF922E
:10026000DF92EF92FF92DC01A03282E0B807D4F572
:10027000A53BB10514F0A4EBB0E04091E40228E8FE
:1002800030E0241B310947FD3395220F331F220F25
:10029000331F6901330FEE08FF084091E50228E59E
:1002A00032E0241B310947FD3395220F331F220F03
:1002B000331F032E000C440B550B2C193D094E091E
:1002C0005F09B7FF02C0B0E0A0E00E94641224EB17
:1002D00030E040E050E00E943A12C20ED31EE41E0D
:1002E000F51ED601E091E302EC3080F52091E402A6
:1002F00088E890E0821B910927FD9395880F991F4C
:10030000880F991FA817B90784F02091E50288E5A6
:1003100092E0821B910927FD9395880F991F880F02
:10032000991FA817B9070CF4CD010297880F991FE0
:100330004FB7F8942E2F30E0F901EE0FFF1FE20FB8
:10034000F31FEB52FE4F928381834FBFFF90EF90DC
:10035000DF90CF90089590E0FC01E458FF4F249186
:10036000FC01E255FF4F3491FC01E656FF4FE4914A
:10037000EE23C9F0222339F0233001F1A8F4213013
:1003800019F1223029F1F0E0EE0FFF1FEE58FF4F78
:10039000A591B4918FB7F894EC91611126C0309576
:1003A0003E233C938FBF08952730A9F02830C9F031
:1003B000243049F7809180008F7D03C080918000B8
:1003C0008F7780938000DFCF84B58F7784BDDBCFBC
:1003D00084B58F7DFBCF8091B0008F778093B00084
:1003E000D2CF8091B0008F7DF9CF3E2BDACFCF9363
:1003F000DF9390E0FC01E255FF4F249186569F4F1A
:10040000FC0184918823D1F090E0880F991FFC01B2
:10041000E859FF4FA591B491FC01EE58FF4FC591EB
:10042000D49161110EC09FB7F8948C91E22FE095A2
:100430008E238C932881E223E8839FBFDF91CF91A5
:1004400008958FB7F894EC91E22BEC938FBFF6CF21
:100450003FB7F89480912E0190912F01A091300127
:10046000B091310126B5A89B05C02F3F19F0019628
:10047000A11DB11D3FBFBA2FA92F982F8827BC01FE
:10048000CD01620F711D811D911D42E0660F771F26
:10049000881F991F4A95D1F708958F929F92AF9226
:1004A000BF92CF92DF92EF92FF920E9428024B01FF
:1004B0005C0188ECC82ED12CE12CF12C0E94280282
:1004C000681979098A099B09683E7340810591057D
:1004D000A8F321E0C21AD108E108F10888EE880EDD
:1004E00083E0981EA11CB11CC114D104E104F104E5
:1004F00029F7FF90EF90DF90CF90BF90AF909F9043
:100500008F900895AF92BF92CF92DF92EF92FF92B9
:100510000F931F93CF93DF936C017B018B01040F2B
:10052000151FEB015E01AE18BF08C017D10759F0C7
:100530006991D601ED91FC910190F081E02DC60109
:100540000995892B79F7C501DF91CF911F910F9103
:10055000FF90EF90DF90CF90BF90AF900895FC0197
:10056000538D448D252F30E0842F90E0821B930B18
:10057000541710F0CF96089501970895FC01918DBE
:10058000828D981761F0A28DAE0FBF2FB11D5D96C1
:100590008C91928D9F5F9F73928F90E008958FEF63
:1005A0009FEF0895FC01918D828D981731F0828D17
:1005B000E80FF11D858D90E008958FEF9FEF08956E
:1005C000FC01918D228D892F90E0805C9F4F821BD2
:1005D00091098F739927089588E391E00E94E002C2
:1005E00021E0892B09F420E0822F089580E090E03B
:1005F000892B29F00E94EC0281110C9400000895CF
:10060000FC01A48DA80FB92FB11DA35ABF4F2C9187
:10061000848D90E001968F739927848FA689B7897E
:100620002C93A089B1898C91837080648C93938D75
:10063000848D981306C00288F389E02D80818F7D18
:1006400080830895EF92FF920F931F93CF93DF93D0
:10065000EC0181E0888F9B8D8C8D98131AC0E889FE
:10066000F989808185FF15C09FB7F894EE89FF89CD
:100670006083E889F98980818370806480839FBF6B
:1006800081E090E0DF91CF911F910F91FF90EF906B
:100690000895F62E0B8D10E00F5F1F4F0F7311277B
:1006A000E02E8C8D8E110CC00FB607FCFACFE889B6
:1006B000F989808185FFF5CFCE010E940003F1CF3B
:1006C000EB8DEC0FFD2FF11DE35AFF4FF0829FB72A
:1006D000F8940B8FEA89FB8980818062CFCFCF931A
:1006E000DF93EC01888D8823B9F0AA89BB89E8895A
:1006F000F9898C9185FD03C0808186FD0DC00FB600
:1007000007FCF7CF8C9185FFF2CF808185FFEDCF7D
:10071000CE010E940003E9CFDF91CF910895892B8C
:1007200079F41092800082E080938100109285001D
:1007300010928400B19A80916F00826080936F0064
:100740000895FC019B0124513109C90163E470E063
:100750000E948712E617F70758F0C90168E270E0B7
:100760000E9487126F5F7F4F81E06E177F0708F44A
:1007700080E00895FC019B012C5E3F4FC90163E4BA
:1007800070E00E948712E617F70758F0C90168E287
:1007900070E00E9487126F5F7F4F81E06E177F07C6
:1007A00008F480E008952F923F924F925F926F92EB
:1007B0007F928F929F92AF92BF92CF92DF92EF92F1
:1007C000FF920F931F93CF93DF9300D01F92CDB76B
:1007D000DEB789832A011901862F90E0880F991FBF
:1007E00009966091F7027091F802860F971F9B831C
:1007F0008A83EE20A1F1912CC12CD12C7601998114
:10080000991609F477C0B201EA81FB818081918158
:100810000E94BA03882309F457C0EA81FB81A280B1
:10082000B380B101C5010E94A103882369F0CC0CFB
:10083000DD1CEE1CFF1C6894C0F88A819B81049625
:100840009B838A839394DBCFB801C5010E94A103E7
:100850008823D1F1CC0CDD1CEE1CFF1CEECF812CCB
:10086000912C54018394C12CD12C76019981992328
:1008700009F440C0B201EA81FB81808191810E942C
:10088000BA03882309F1EA81FB8162807380B10198
:10089000C3010E94A103882389F0C828D928EA2827
:1008A000FB288A819B8104969B838A83880C991CF0
:1008B000AA1CBB1C998191509983D8CFB801C30160
:1008C0000E94A1038111EDCF0F900F900F90DF9147
:1008D000CF911F910F91FF90EF90DF90CF90BF903D
:1008E000AF909F908F907F906F905F904F903F90D0
:1008F0002F900895C092F302D092F402E092F50294
:10090000F092F60281E0E0CF3F924F925F926F92B9
:100910007F928F929F92AF92BF92CF92DF92EF928F
:10092000FF920F931F93CF93DF9300D000D000D09E
:10093000CDB7DEB7382E5A8349833C832B833801E9
:100940000091F7021091F802862F90E0880F991F0E
:100950000996800F911F9E838D83812C912C5401C9
:100960008394C12CD12C7601332009F452C0ED813F
:10097000FE814080518069817A81C2010E94BA0360
:10098000882341F1C828D928EA28FB282D813E81F7
:100990002E5F3F4FF801808590E0880F991F0996E0
:1009A000800F911F2817390768F4B301ED81FE818C
:1009B000828193810E94A103882399F02D813E8139
:1009C0002C5F3F4F880C991CAA1CBB1C3A943E8399
:1009D0002D83CACF6B817C81C2010E94BA03811131
:1009E000D5CF26960FB6F894DEBF0FBECDBFDF91F0
:1009F000CF911F910F91FF90EF90DF90CF90BF901C
:100A0000AF909F908F907F906F905F904F903F90AE
:100A10000895C092F302D092F402E092F502F092AF
:100A2000F60281E0DECFFC0101900020E9F731976A
:100A3000AF01481B590BBC0188E391E00C94820282
:100A4000CF93DF930E941305EC0184E191E00E94B3
:100A500013058C0F9D1FDF91CF9108958F929F9268
:100A6000AF92BF92CF92DF92EF92FF920F931F93BC
:100A7000CF93DF93CDB7DEB7A1970FB6F894DEBF63
:100A80000FBECDBF6C01990FEE08FF08F7FE47C0FF
:100A90006DE288E391E00E9422038C012227332734
:100AA000A9012C193D094E095F0919A2CE018196B1
:100AB0007C019AE0892E912CA12CB12CCA01B9019C
:100AC000A50194010E941812605DF70162937F01F5
:100AD000211531054105510589F790E080E03097F7
:100AE00019F0CF010E941305080F191F84E191E04E
:100AF0000E941305800F911FA1960FB6F894DEBFD8
:100B00000FBECDBFDF91CF911F910F91FF90EF905E
:100B1000DF90CF90BF90AF909F908F900895A701E6
:100B2000960119A28E010F5D1F4F8AE0C82ED12CAD
:100B3000E12CF12CCA01B901A70196010E941812FB
:100B4000605DF80162938F01211531054105510562
:100B500089F7309729F0CF010E9413058C01C6CF89
:100B600010E000E0C3CF1F920F920FB60F92112436
:100B70002F933F938F939F93AF93BF9380912A01BD
:100B800090912B01A0912C01B0912D013091290160
:100B900023E0230F2D3758F50196A11DB11D209399
:100BA000290180932A0190932B01A0932C01B093EB
:100BB0002D0180912E0190912F01A0913001B091D3
:100BC00031010196A11DB11D80932E0190932F013B
:100BD000A0933001B0933101BF91AF919F918F915C
:100BE0003F912F910F900FBE0F901F90189526E800
:100BF000230F0296A11DB11DD2CF1F920F920FB6E7
:100C00000F9211242F933F934F935F936F937F9392
:100C10008F939F93AF93BF93EF93FF9388E391E0FC
:100C20000E940003FF91EF91BF91AF919F918F912F
:100C30007F916F915F914F913F912F910F900FBED8
:100C40000F901F9018951F920F920FB60F921124BC
:100C50002F938F939F93EF93FF93E0914801F0912F
:100C600049018081E0914E01F0914F0182FD1BC04E
:100C70009081809151018F5F8F7320915201821773
:100C800041F0E0915101F0E0E85CFE4F958F8093D8
:100C90005101FF91EF919F918F912F910F900FBE76
:100CA0000F901F9018958081F4CF1F920F920FB66E
:100CB0000F9211242F933F934F935F936F937F93E2
:100CC0008F939F93AF93BF93CF93DF93EF93FF9354
:100CD00080912801C091F901D0E087FF24C01092D3
:100CE000850010928400809128018F5F80932801F5
:100CF00080912801082E000C990B8C179D0724F475
:100D0000809128018C30C4F18091840090918500FD
:100D1000049680349C4908F47AC0809184009091B4
:100D20008500049676C080912801082E000C990B4E
:100D30008C179D07C4F6E09128018E2FEE0F990BBA
:100D4000FC01EE0FFF1FE80FF91FEB52FE4F8081F1
:100D500086FFC9CFE09128018E2FEE0F990BFC0181
:100D6000EE0FFF1FE80FF91FEB52FE4F808160E08E
:100D70008F730E94AB01B7CF209184003091850022
:100D8000E09128018E2FEE0F990BFC01EE0FFF1F53
:100D9000E80FF91FEB52FE4F81819281820F931F62
:100DA0009093890080938800E09128018E2FEE0FA8
:100DB000990BFC01EE0FFF1FE80FF91FEB52FE4FDE
:100DC000808186FF11C0E09128018E2FEE0F990BD4
:100DD000FC01EE0FFF1FE80FF91FEB52FE4F808161
:100DE00061E08F730E94AB01FF91EF91DF91CF9192
:100DF000BF91AF919F918F917F916F915F914F9133
:100E00003F912F910F900FBE0F901F90189580E487
:100E10009CE990938900809388008FEF809328014C
:100E2000E3CF1F920F920FB60F9211242F933F938F
:100E30004F935F936F937F938F939F93AF93BF93E2
:100E4000EF93FF93E091FC01F091FD01908180917F
:100E5000FE0198232091FF01309100022F3F3207BD
:100E600031F02F5F3F4F309300022093FF018091BC
:100E7000FA01811135C0911116C02091FF01309106
:100E800000022536310558F0109201023093040219
:100E90002093030281E0809302028093FA01109272
:100EA00000021092FF018091E702813041F48091AD
:100EB000E602911161C061E0811161C02D9AFF913C
:100EC000EF91BF91AF919F918F917F916F915F91C2
:100ED0004F913F912F910F900FBE0F901F9018953B
:100EE0008091FA018130A1F49923E9F2E0910202A4
:100EF0008E0F80930202F0E0EE0FFF1FE650FE4FD0
:100F00002091FF01309100023287218782E0C5CF16
:100F10008091FA01823039F5911119C0E0910202F5
:100F200081E0E03720F08093010283E0B6CF8E0F9E
:100F300080930202F0E0EE0FFF1FE650FE4F20917B
:100F4000FF01309100023287218781E0A6CF2091F6
:100F5000FF01309100022536310508F4A4CF83E06B
:100F60008093FA01A0CF8091FA01833009F09BCFE2
:100F7000992309F494CF97CF882321F060E00E9451
:100F8000AB019DCF2D989BCFEF92FF920F931F93B4
:100F9000CF93DF93EC01F62F8A01790190E080E096
:100FA00030E0E0E0DE01AE0FB11D2C91222341F0D4
:100FB000320F2E9F800D911D11241C92FE1315C01F
:100FC000332399F0532F5695850F911D632F70E0B1
:100FD0000E948712DE01A60FB11D3C93D8013C91FF
:100FE00031110EC06C9390E080E0EF5FFE17D0F6F9
:100FF00081E0DF91CF911F910F91FF90EF900895C5
:10100000D7013C91332371F380E0F3CF10923B0181
:1010100010923A0188EE93E0A0E0B0E080933C01AA
:1010200090933D01A0933E01B0933F0186E091E093
:10103000909339018093380185EC90E090934501BD
:101040008093440184EC90E09093470180934601A3
:1010500080EC90E0909349018093480181EC90E00E
:1010600090934B0180934A0182EC90E090934D0164
:1010700080934C0186EC90E090934F0180934E0159
:10108000109251011092520110925301109254018A
:101090008AEF91E09093F8028093F70280E00E943B
:1010A0008C001092E6028091F9018C3098F491E066
:1010B000980F9093F9018093E30290E0FC01EE0F0A
:1010C000FF1FE80FF91FEB52FE4F88EB9BE0928366
:1010D000818308958FEF8093E3020895CF93DF9388
:1010E000CDB7DEB7E8970FB6F894DEBF0FBECDBF21
:1010F000789484B5826084BD84B5816084BD85B5F3
:10110000826085BD85B5816085BD80916E008160FE
:1011100080936E00109281008091810082608093A4
:1011200081008091810081608093810080918000A6
:101130008160809380008091B10084608093B100D1
:101140008091B00081608093B00080917A008460CB
:1011500080937A0080917A00826080937A008091F7
:101160007A00816080937A0080917A008068809311
:101170007A001092C100E0914801F091490112E01B
:101180001083E0914401F09145011082E091460105
:10119000F09147018FEC808310925001E0914C0157
:1011A000F0914D0186E08083E0914A01F0914B017E
:1011B000808180618083E0914A01F0914B018081C0
:1011C00088608083E0914A01F0914B0180818068C2
:1011D0008083E0914A01F0914B0180818F7D808373
:1011E00087E191E00E9420058DE00E948C00109222
:1011F000E6028091E70281608093E70261E08DE082
:101200000E94F70160E08091FB010E94F7011093BA
:10121000B0001093B10084E68093B3008093B400D3
:101220001092B2008091FA01833011F41092FA0109
:1012300084E0809370009E012F5F3F4F29016AE098
:10124000662E70E2272E312C8091FA01833009F04E
:101250006CC180910102882309F45EC010920102E2
:101260001092020280E48093F2021092E90210923E
:10127000E8021092ED021092EC021092EB02109232
:10128000EA021092F3021092F4021092F502109208
:10129000F6021092F1021092F0028091F20286FFA3
:1012A00002C00C940312E091F702F091F80220853D
:1012B000822F8F7B843009F068C18385948586589E
:1012C00091098C35910508F060C18585968524309B
:1012D00009F049C08197489708F057C187859089E0
:1012E0000897089708F051C181E08093F20280913D
:1012F000FB029091FC029093EB028093EA028091B2
:10130000FF02909100039093ED028093EC02809194
:10131000F9029091FA0269C21092F2028091E802F9
:101320009091E9029093FA028093F9028091EC0285
:101330009091ED02B0E0A0E08093FF029093000353
:10134000A0930103B09302038091EA029091EB0213
:10135000B0E0A0E08093FB029093FC02A093FD021A
:10136000B093FE0282CF825491098F9708F00DC18D
:10137000E12C00E312E020E936E040E352E063E0D4
:1013800080E20E94D303882309F4FFC0E091F702B2
:10139000F091F802E157FF4F8081918108970897FB
:1013A00008F0F3C02091F3029091F4026091F502ED
:1013B0008091F602462F50E05093ED024093EC02EC
:1013C000422F592F4E3E37E8530709F0BBC025E1A5
:1013D00030E03093E9022093E80290E09093EB0232
:1013E0008093EA023092F1022092F0020091EC0226
:1013F0001091ED02C8010E942E050230110509F07E
:101400009EC78091E3028C3008F043C061E089E020
:101410000E94F7018091E302282F30E0F901EE0FDE
:10142000FF1FE20FF31FEB52FE4F9081907C9960FB
:1014300090831092E4021092E5022CE0622F0E9449
:101440007B12829FB001112430E020E0AB01420FFB
:10145000531FFA01EE0FFF1FE40FF51FEB52FE4F73
:10146000908196FD08C02F5F3F4F2C30310571F7FA
:1014700090E00E948F03E091E3028E2F90E0FC0148
:10148000EE0FFF1FE80FF91FEB52FE4F80818064C3
:101490008083E091E3028E2F90E0FC01EE0FFF1FAE
:1014A000E80FF91FEB52FE4F808186FF28C0809124
:1014B000000190910101853191050CF10A979093FB
:1014C0000101809300010E942E05809100019091FE
:1014D00001010E942F010E944D02E091E3028E2F34
:1014E00090E0FC01EE0FFF1FE80FF91FEB52FE4FDB
:1014F00080818F7B80838DE191E00E942005E091C7
:10150000E3028E2F90E0FC01EE0FFF1FE80FF91FA2
:10151000EB52FE4F808186FF02C08F7B80838091DB
:10152000FA01833011F41092FA0180E090E0892BE7
:1015300009F48ACE0E94EC02882309F480CE0E942E
:1015400000007DCE9095291310C030E03093EB025F
:101550002093EA02982F909569130CC088E090E0E0
:101560009093E9028093E8023DCF5093EB024093C1
:10157000EA02F0CF24E130E03093E9022093E80260
:101580006093EC028093ED022DCFE091F702F09191
:10159000F8028085843609F0B3C083859485C397AB
:1015A000859708F0ADC0858596854A97439708F0E2
:1015B000A7C0E12C00EB11E020E135E040EB51E069
:1015C00063E080E10E94D303882309F499C0F0907E
:1015D000F302CF2CD090F40249E0A42EB12C52E0BB
:1015E000C51650E2D50619F13DE0A32EB12C8AEACA
:1015F000C8168AE5D806D9F02CE0A22EB12C94E5C5
:10160000C91692E3D90699F09BE0A92EB12CA3E06C
:10161000CA16A1E0DA0659F05EE0A52EB12CB3E2BD
:10162000CB16BBECDB0619F08AE0A82EB12CE12C1E
:1016300000EB11E020E135E040EB51E063E280E2B5
:101640000E94D303882309F45BC0FD248091F30238
:101650009091F402A091F502B091F6029C0104E091
:10166000369527950A95E1F73093EB022093EA022D
:101670002A2F30E03093ED022093EC02382F3A27E6
:1016800039272F2D22952F702F252F70482F4F701F
:10169000241719F024E02093F202EAE0AE16B10418
:1016A00079F02091F20220612093F2024091EE0243
:1016B0005091EF02C42AD52AD092EF02C092EE02D6
:1016C0003B1729F08091F20284608093F202E0914E
:1016D000F702F091F8028185928588329A4028F4C9
:1016E0008091F20281608093F202B092E902A092AE
:1016F000E80280E390E09093F1028093F00276CECE
:10170000E091F702F091F8028085803209F075C00F
:10171000EE24E3940CE013E02CE137E044E051E0E8
:1017200061E08FE00E94D303882309F466C0E09152
:10173000F702F091F802DF01A95BBF4F8D919C91F8
:101740000497059708F059C080E88093F202C09092
:10175000F302D090F402E090F502F090F6024C2DE6
:101760004370D701C60112E0B695A7959795879566
:101770001A95D1F79093EA021092EB029C0133275D
:101780003093ED022093EC022185328525363440DA
:1017900088F5209103032F5F20930303C0FE11C03F
:1017A00032E83093F2023091FF028095381719F039
:1017B00086E88093F202832F90E09093ED0280936D
:1017C000EC02223028F08091F20281608093F202D4
:1017D0008FE090E09093F1028093F002415082E11B
:1017E00090E0423010F083E090E09093E902809323
:1017F000E802FCCD10920303EBCFE091F702F091E9
:10180000F8028385948584974A9708F055C020850F
:101810002A3129F02A3219F0203209F04DC085858D
:1018200096850897089708F047C030E0C9010197EE
:1018300097FDC9019595879508E512E028E532E006
:1018400040EB54E063E00E9484048823A9F1809176
:10185000F3029091F402A091F502B091F602282FC4
:101860002F77E7E0B695A79597958795EA95D1F7F5
:10187000E091F702F091F8024185528544385340D7
:1018800018F431E03093F20230E03093ED0220930F
:10189000EC029093EB028093EA02208530E0C901CC
:1018A000019797FDC901959587959093F1028093D3
:1018B000F00283E190E099CF81E08093370189E7DE
:1018C00093E09093350180933401109236010E9489
:1018D000A900813009F067C0C12CD12C760110E03D
:1018E000E091F702F091F802908580913701891715
:1018F000E0F40E94A900082F0E94A90001110BC06A
:10190000813009F050C0CC0CDD1CEE1CFF1C68942B
:10191000C0F81F5FE5CF013009F045C0811143C019
:10192000CC0CDD1CEE1CFF1CF4CF812F90E09093BB
:10193000F1028093F002C092F302D092F402E0929E
:10194000F502F092F6028C2D8F7390E09093ED02E9
:101950008093EC02960146E0369527954A95E1F78B
:101960002F7133273093EB022093EA02960122274E
:101970003071232B31F4805C9F4F9093ED02809364
:10198000EC0280E8D3FC88E88093F202818592859E
:10199000833E984028F48091F20281608093F202A5
:1019A0008FE090E022CFE091F702F091F80283857A
:1019B000948588974D9708F046C0858596850C9745
:1019C0000B9708F040C083E0809337018CEB91E0E7
:1019D0009093350180933401109236010E94A90042
:1019E000813089F50E94A900182F81112CC0C12CCB
:1019F000D12C7601E091F702F091F8029085809168
:101A00003701891708F071C00E94A900B82E133061
:101A1000B1F00E94A900082F133021F40E94A90000
:101A2000081311C0B1E0BB1256C001110CC0CC0CA0
:101A3000DD1CEE1CFF1C6894C0F81F5FDBCF0E940A
:101A4000A900B81631F3E091F702F091F802208571
:101A50002C3311F0243051F4838594858638910518
:101A600008F48CC0833E910508F4A5C0E091F7020C
:101A7000F091F8028085843209F40AC1823209F0BB
:101A800035C1818592858C3E9C4508F0AFCC83851D
:101A900094850897079708F0A9CCE55BFF4F8081F4
:101AA00091810897079708F0A1CC81E08093F2021A
:101AB0008091FB029091FC029093EB028093EA02EA
:101AC0008091FF02909100039093ED028093EC02CD
:101AD00085E090E08ACEB110B6CF013009F0B3CFE7
:101AE000CC0CDD1CEE1CFF1CA8CF812F90E0909346
:101AF000F1028093F002C092F302D092F402E092DD
:101B0000F502F092F6022C2D30E08D2D1432F8F40F
:101B100080E88093F2023093ED022093EC028D2D49
:101B200090E09093EB028093EA02E0FE03C088E825
:101B30008093F2028185928583379A4028F48091C0
:101B4000F20281608093F20280E190E04ECE90E953
:101B50009093F202D7FE03C098E99093F20230937B
:101B6000ED022093EC028F7790E09093EB0280934C
:101B7000EA02F092EF02E092EE02DCCF8D329105A4
:101B800008F474CF6CE175E2B7E0CB2ED12C8D3424
:101B9000910508F06BCF85859685243091F44D979B
:101BA000469708F063CF878590890797089708F0D4
:101BB0005DCF81E89ACB68E670E1A6E0CA2ED12C11
:101BC000EACF0E94A103882309F450CFEE24E394C6
:101BD00006E212E02CE236E044EF51E063E08CE1F3
:101BE0000E94D303882309F441CFE091F702F091DA
:101BF000F802E158FF4F808191810797089708F01C
:101C000035CF80E88093F2028091F3029091F40244
:101C1000A091F502B091F6028C019D0144E0369549
:101C20002795179507954A95D1F7B8011093ED02BE
:101C30000093EC028C019D0154E136952795179590
:101C400007955A95D1F71093EB020093EA0244E00E
:101C500050E020E0362F3F70230F14E07695679513
:101C60001A95E1F741505109A9F782278F709927FA
:101C7000AA27BB27892B8A2B8B2B19F084E880930A
:101C8000F202D092E902C092E8028CE190E033CDFA
:101C9000838594858D5791098735910538F585851C
:101CA0009685CE978C9710F5E12C0EE012E02AE293
:101CB00036E04EE052E063E080E10E94D3038823E7
:101CC000A9F08091F3022091F40230E03093ED020C
:101CD0002093EC0290E09093EB028093EA0280E183
:101CE00090E09093F1028093F002F2CEE091F7023F
:101CF000F091F8028085982F9F7D943419F08630FA
:101D000009F08DC023853485225431092F323105E5
:101D100008F085C025853685215431092F323105DB
:101D200008F07DC08630B1F481E08093F2028091AA
:101D3000FB029091FC029093EB028093EA02809167
:101D4000FF02909100039093ED028093EC0281E1F9
:101D500090E04BCDE12C09E212E02BE736E049E2BE
:101D600052E063E08436B9F580E10E94D303882312
:101D700009F455C08091F3029091F4029093EB0224
:101D80008093EA022BE736E049E252E063E080E22A
:101D90000E94D303882309F442C09091F30230914A
:101DA000F4022091F5028091F6022095821731F01D
:101DB0009095931719F094E09093F202982F832F47
:101DC0009093ED028093EC0280E390E09093F10217
:101DD0008093F002BCCF80E20E94D3038823F9F005
:101DE0008091F5023091F6022091F3029091F40275
:101DF0002093EA029093EB02932F909589130AC0E7
:101E000090E09093ED028093EC023092F1022092E8
:101E1000F0029DCF8093EC023093ED02F6CFE0917B
:101E2000F702F091F802838594852085243459F5D2
:101E30000B970A9740F5858596858A974E9718F5F2
:101E4000EE24E3940EEE12E026E638E04EEE52E089
:101E500063E080E20E94D3038823A9F0E091F702B7
:101E6000F091F802E157FF4F808191810B970A971B
:101E700050F480E88093F2023092F1022092F00256
:101E800089E190E0B2CCE091F702F091F802208570
:101E9000838594850297049708F062C0243209F084
:101EA0005FC0858596850F970C9708F059C0EE2482
:101EB000E39407E011E029E232E04EE950E063E00C
:101EC00080E10E94D303882309F44AC0E091F7021D
:101ED000F091F802DF01A15BBF4F8D919C910297B9
:101EE0000497F0F580E88093F2029091F3028091DC
:101EF000F402292F382F482F42954F708F70A4E09D
:101F000036952795AA95E1F72F70392F3F709FE0FE
:101F1000942798279227391719F094E89093F202A2
:101F200061857285683F714128F49091F202926058
:101F30009093F2024093EA021092EB0250E1859FE7
:101F4000C0011124822B9093ED028093EC0287E173
:101F500090E09093E9028093E80280E190E0CBCB9F
:101F6000E091F702F091F8022085838594850F9720
:101F70000C97B8F52432A9F5858596854597419744
:101F800080F5E12C04ED11E02CEB35E048E052E067
:101F900063E080E10E94D303882319F1E091F70206
:101FA000F091F802DF01A15BBF4F8D919C910897E2
:101FB0000797B8F48091F3029091F40298279F3F1D
:101FC00081F421853285223E344018F491E09093CB
:101FD000F20290E09093ED028093EC0286E190E0B3
:101FE000B8CFE090F702F090F802D70118968C91E4
:101FF000803709F056C06701F701E452FF4FF8AF90
:10200000EFAB20E030E040E010E000E0912C812CCC
:10201000712CD6011B96ED91FC911C971D96AD90ED
:10202000BC90C501BF010E948712DB01EA0DFB1DB8
:1020300071973E97C8F5512F602F792D882D972DD8
:1020400001E00E949B12E32FF42F152F062F972EED
:10205000882E792E129708F4216084E0C80ED11CD6
:10206000AFA9B8ADAC15BD05A1F688E190E090939D
:10207000E9028093E80287E390E09093F102809375
:10208000F00280E18093F2022093EE02E093EF02EF
:10209000F093F3025093F4026093F5027093F6020A
:1020A000A5C9843108F4E4C082E3F20111928A9553
:1020B000E9F7D70118962C912250330B60E044E0E9
:1020C000842F90E0821793079CF4880F991FF701E3
:1020D000E80FF91F8185823348F4F201E80FF11D02
:1020E00090819F5F9083681708F4682F4E5FE8CF58
:1020F0001EAA1DAA9E012B5C3F4FAE014A5C5F4F9A
:10210000C2010E94C407882309F4B2C082E3F2012D
:1021100011928A95E9F7A091F702B091F80218960A
:102120002C9118972250330B60E043E0842F90E00D
:10213000821793079CF4880F991FFD01E80FF91F80
:102140008185823348F4F201E80FF11D90819F5F91
:102150009083681708F4682F4E5FE8CF1CAA1BAA6B
:102160009E012D5C3F4FAE014C5C5F4FC2010E944F
:10217000C407E091F702F091F802F084F6948F2DF5
:1021800090E09C01225031093093F1022093F0023B
:10219000039745E0969587954A95E1F7D82E8DA946
:1021A000811135C08BA9882309F462C0FA94FA948E
:1021B00023E0C22EE12C32E3B32E0EA90B9D800149
:1021C00011242CA92B9D900111244BA94B9DA001FA
:1021D00011248F2DF0E2FF1508F480E26C2D0E948F
:1021E0008404882309F444C020E4C20EE39430EE52
:1021F000F30EDE1410F78CA99BA98927982789274D
:102200009093EF028093EE0282E090E0EECAFA949F
:10221000FA9483E0B82EC12C92E3A92E0EA90A9D50
:10222000800111242DA92A9D900111244CA94A9DB9
:10223000A00111248F2D90E29F1508F480E2E12C7B
:102240006B2D0E94D303882399F0A0E4BA0EC394A7
:10225000B0EEFB0EDC1410F78EA99DA989279827F4
:1022600089279093EF028093EE0281E090E0BDCA4F
:102270000091F7021091F802D8011896EC91E6301F
:1022800008F4B4C8FF24F39425EC3DE94CE151E88F
:10229000F0E08F2D90E0BC016E5F7F4F6E177F07DF
:1022A000ECF5660F771FD801A60FB71F19966D9131
:1022B0007C91880F991FD801A80FB91F19968D918D
:1022C0009C91669E6001679ED00C1124DC01AA0FD0
:1022D000BB1FAA0FBB1FAA0FBB1FE12CCA16DB0630
:1022E00090F0689ED001699EB00D1124CB0173E07F
:1022F000880F991F7A95E1F762E0E62EA817B907D3
:1023000010F0EE24E39463E971E080E091E00E9434
:1023100008129B01AC012E25F394BBCF2093F3024E
:102320003093F4024093F5025093F6023092F1029A
:102330002092F0021092E9021092E80257C803308E
:10234000110509F0ECC88091E3028C3008F043C01D
:1023500061E089E00E94F7018091E302282F30E0DC
:10236000F901EE0FFF1FE20FF31FEB52FE4F9081BA
:10237000907C996090831092E4021092E5022CE028
:10238000622F0E947B12829FB001112430E020E076
:10239000AB01420F531FFA01EE0FFF1FE40FF51FB1
:1023A000EB52FE4F908196FD08C02F5F3F4F2C30BF
:1023B000310571F790E00E948F03E091E3028E2FC8
:1023C00090E0FC01EE0FFF1FE80FF91FEB52FE4FEC
:1023D000808180648083E091E3028E2F90E0FC0195
:1023E000EE0FFF1FE80FF91FEB52FE4F808186FFB3
:1023F00086C88091000190910101883791050CF009
:102400007EC80A965CC890E080E00E942E0587C8CE
:10241000DB018F939F930E945912BF91AF91A29FAE
:10242000800D911DA39F900DB29F900D11240895D2
:10243000A1E21A2EAA1BBB1BFD010DC0AA1FBB1FC8
:10244000EE1FFF1FA217B307E407F50720F0A21B3A
:10245000B30BE40BF50B661F771F881F991F1A94A7
:1024600069F760957095809590959B01AC01BD01D1
:10247000CF010895052E97FB1EF400940E9451127F
:1024800057FD07D00E94181207FC03D04EF40C949D
:10249000511250954095309521953F4F4F4F5F4FCA
:1024A000089590958095709561957F4F8F4F9F4FC0
:1024B00008950E946C12A59F900DB49F900DA49F4B
:1024C000800D911D11240895B7FF0C9459120E949C
:1024D0005912821B930B0895A29FB001B39FC001B4
:1024E000A39F700D811D1124911DB29F700D811D40
:1024F0001124911D0895991B79E004C0991F961726
:1025000008F0961B881F7A95C9F780950895AA1B35
:10251000BB1B51E107C0AA1FBB1FA617B70710F0CE
:10252000A61BB70B881F991F5A95A9F78095909500
:10253000BC01CD010895002E083090F0982F872F10
:10254000762F652F542F432F322F22270850F4CF98
:10255000220F331F441F551F661F771F881F991FA7
:102560000A95B2F7002D0895EE0FFF1F0590F49124
:08257000E02D0994F894FFCF5F
:1025780032000000000022038202AF026F03E00273
:10258800BE02D2020D0A0048656C6C6F0053756379
:082598006365737366756C0046
:00000001FF
