:100000000C9462000C948A000C948A000C948A0070
:100010000C948A000C948A000C948A000C948A0038
:100020000C94BB050C948A000C948A000C94FF0479
:100030000C948A000C948A000C948A000C948A0018
:100040000C945D040C948A000C94CD040C94A704C9
:100050000C948A000C948A000C948A000C948A00F8
:100060000C948A000C948A000000000024002700F1
:100070002A0000000000250028002B0000000008D6
:10008000000201000003040700000000000000005F
:1000900000000000230026002900040404040404D6
:1000A0000404020202020202030303030303010227
:1000B00004081020408001020408102001020408F6
:1000C0001020B00611241FBECFEFD8E0DEBFCDBF99
:1000D00011E0A0E0B1E0EEE3F3E202C005900D9282
:1000E000AC31B107D9F722E0ACE1B1E001C01D921B
:1000F000A83FB207E1F710E0C2E6D0E004C02197C4
:10010000FE010E949711C136D107C9F70E94180756
:100110000C949D110C940000AEEEB1E011968C93FE
:10012000119790E0FC01E255FF4FE4911496EC9397
:100130001497FC01E656FF4FE491F0E0EE0FFF1F2D
:10014000E057FF4F8591949113969C938E9312974D
:1001500008950F931F93CF93DF93E091EB02F091FB
:10016000EC0240912B01808510E0481708F064C034
:10017000142F117000912A0101114FC0842F90E0BB
:10018000880F991FE80FF91F0184F285E02D2CEEEE
:100190003FEF112311F024E130E0C0912801D0910C
:1001A00029012C0F3D1FC90163E470E00E94631117
:1001B000E617F70760F0C90168E270E00E9463117A
:1001C0006F5F7F4F81E090E06E177F0710F52C0F77
:1001D0003D1FC90163E470E00E946311E617F70751
:1001E00050F0C90168E270E00E9463116F5F7F4FB9
:1001F0006E177F0760F42C0F3D1FC90163E470E0A8
:100200000E946311E617F707E8F41FEF15C082E0BC
:1002100090E090932701809326010F5F00932A01BD
:1002200080912601909127010817190628F0109255
:100230002A014F5F40932B01812FDF91CF911F91B6
:100240000F910895C90168E270E00E9463116F5F29
:100250007F4F6E177F07C8F283E090E0DACF90E01F
:10026000FC01E458FF4F2491FC01E255FF4F34910B
:10027000FC01E656FF4FE491EE23C9F0222339F04A
:10028000233001F1A8F4213019F1223029F1F0E0F6
:10029000EE0FFF1FEE58FF4FA591B4918FB7F89462
:1002A000EC91611126C030953E233C938FBF089599
:1002B0002730A9F02830C9F0243049F78091800018
:1002C0008F7D03C0809180008F7780938000DFCF87
:1002D00084B58F7784BDDBCF84B58F7DFBCF8091D4
:1002E000B0008F778093B000D2CF8091B0008F7D27
:1002F000F9CF3E2BDACFCF93DF9390E0FC01E255AC
:10030000FF4F249186569F4FFC0184918823D1F0A2
:1003100090E0880F991FFC01E859FF4FA591B49117
:10032000FC01EE58FF4FC591D49161110EC09FB7EB
:10033000F8948C91E22FE0958E238C932881E22310
:10034000E8839FBFDF91CF9108958FB7F894EC9128
:10035000E22BEC938FBFF6CF3FB7F8948091220148
:1003600090912301A0912401B091250126B5A89B6D
:1003700005C02F3F19F00196A11DB11D3FBFBA2F37
:10038000A92F982F8827BC01CD01620F711D811DF7
:10039000911D42E0660F771F881F991F4A95D1F77C
:1003A0000895AF92BF92CF92DF92EF92FF920F9398
:1003B0001F93CF93DF936C017B018B01040F151FFB
:1003C000EB015E01AE18BF08C017D10759F0699163
:1003D000D601ED91FC910190F081E02DC6010995C7
:1003E000892B79F7C501DF91CF911F910F91FF9074
:1003F000EF90DF90CF90BF90AF900895FC01538DA8
:10040000448D252F30E0842F90E0821B930B5417EE
:1004100010F0CF96089501970895FC01918D828D7B
:10042000981761F0A28DAE0FBF2FB11D5D968C9114
:10043000928D9F5F9F73928F90E008958FEF9FEF53
:100440000895FC01918D828D981731F0828DE80F0F
:10045000F11D858D90E008958FEF9FEF0895FC01C9
:10046000918D228D892F90E0805C9F4F821B910996
:100470008F73992708958CE291E00E942F0221E06A
:10048000892B09F420E0822F089580E090E0892BE9
:1004900029F00E943B0281110C9400000895FC0198
:1004A000A48DA80FB92FB11DA35ABF4F2C91848DD5
:1004B00090E001968F739927848FA689B7892C9332
:1004C000A089B1898C91837080648C93938D848D85
:1004D000981306C00288F389E02D80818F7D808388
:1004E0000895EF92FF920F931F93CF93DF93EC0148
:1004F00081E0888F9B8D8C8D98131AC0E889F989CB
:10050000808185FF15C09FB7F894EE89FF896083CD
:10051000E889F98980818370806480839FBF81E04E
:1005200090E0DF91CF911F910F91FF90EF90089590
:10053000F62E0B8D10E00F5F1F4F0F731127E02E6B
:100540008C8D8E110CC00FB607FCFACFE889F989A3
:10055000808185FFF5CFCE010E944F02F1CFEB8D58
:10056000EC0FFD2FF11DE35AFF4FF0829FB7F89477
:100570000B8FEA89FB8980818062CFCFCF93DF9395
:10058000EC01888D8823B9F0AA89BB89E889F989AB
:100590008C9185FD03C0808186FD0DC00FB607FCE0
:1005A000F7CF8C9185FFF2CF808185FFEDCFCE0113
:1005B0000E944F02E9CFDF91CF910895FC019B018A
:1005C00024513109C90163E470E00E946311E61708
:1005D000F70758F0C90168E270E00E9463116F5F8D
:1005E0007F4F81E06E177F0708F480E00895FC01DB
:1005F0009B012C5E3F4FC90163E470E00E946311D0
:10060000E617F70758F0C90168E270E00E9463112D
:100610006F5F7F4F81E06E177F0708F480E00895D9
:100620002F923F924F925F926F927F928F929F9202
:10063000AF92BF92CF92DF92EF92FF920F931F93F0
:10064000CF93DF9300D01F92CDB7DEB789832A0105
:100650001901862F90E0880F991F09966091EB028F
:100660007091EC02860F971F9B838A83EE20A1F185
:10067000912CC12CD12C76019981991609F477C05F
:10068000B201EA81FB81808191810E94F702882377
:1006900009F457C0EA81FB81A280B380B101C50192
:1006A0000E94DE02882369F0CC0CDD1CEE1CFF1CCE
:1006B0006894C0F88A819B8104969B838A83939473
:1006C000DBCFB801C5010E94DE028823D1F1CC0C3A
:1006D000DD1CEE1CFF1CEECF812C912C5401839469
:1006E000C12CD12C76019981992309F440C0B20123
:1006F000EA81FB81808191810E94F702882309F1C0
:10070000EA81FB8162807380B101C3010E94DE0235
:10071000882389F0C828D928EA28FB288A819B8168
:1007200004969B838A83880C991CAA1CBB1C998104
:1007300091509983D8CFB801C3010E94DE02811184
:10074000EDCF0F900F900F90DF91CF911F910F91F0
:10075000FF90EF90DF90CF90BF90AF909F908F90E1
:100760007F906F905F904F903F902F900895C09230
:10077000E702D092E802E092E902F092EA0281E018
:10078000E0CF3F924F925F926F927F928F929F92B3
:10079000AF92BF92CF92DF92EF92FF920F931F938F
:1007A000CF93DF9300D000D000D0CDB7DEB7382E86
:1007B0005A8349833C832B8338010091EB021091CB
:1007C000EC02862F90E0880F991F0996800F911FE9
:1007D0009E838D83812C912C54018394C12CD12C28
:1007E0007601332009F452C0ED81FE8140805180B2
:1007F00069817A81C2010E94F702882341F1C828E9
:10080000D928EA28FB282D813E812E5F3F4FF80131
:10081000808590E0880F991F0996800F911F2817F7
:10082000390768F4B301ED81FE81828193810E94D2
:10083000DE02882399F02D813E812C5F3F4F880C8A
:10084000991CAA1CBB1C3A943E832D83CACF6B8192
:100850007C81C2010E94F7028111D5CF26960FB686
:10086000F894DEBF0FBECDBFDF91CF911F910F91E6
:10087000FF90EF90DF90CF90BF90AF909F908F90C0
:100880007F906F905F904F903F900895C092E702E5
:10089000D092E802E092E902F092EA0281E0DECF33
:1008A000FC0101900020E9F73197AF01481B590B7B
:1008B000BC018CE291E00C94D1011F920F920FB613
:1008C0000F9211242F933F938F939F93AF93BF93D6
:1008D00080911E0190911F01A0912001B0912101F2
:1008E00030911D0123E0230F2D3758F50196A11DEE
:1008F000B11D20931D0180931E0190931F01A093B1
:100900002001B09321018091220190912301A091B7
:100910002401B09125010196A11DB11D80932201F2
:1009200090932301A0932401B0932501BF91AF912F
:100930009F918F913F912F910F900FBE0F901F901D
:10094000189526E8230F0296A11DB11DD2CF1F9244
:100950000F920FB60F9211242F933F934F935F93F3
:100960006F937F938F939F93AF93BF93EF93FF9377
:100970008CE291E00E944F02FF91EF91BF91AF9105
:100980009F918F917F916F915F914F913F912F91A7
:100990000F900FBE0F901F9018951F920F920FB6D9
:1009A0000F9211242F938F939F93EF93FF93E091D6
:1009B0003C01F0913D018081E0914201F0914301C1
:1009C00082FD1BC09081809145018F5F8F732091C4
:1009D0004601821741F0E0914501F0E0E45DFE4FF1
:1009E000958F80934501FF91EF919F918F912F916A
:1009F0000F900FBE0F901F9018958081F4CF1F921B
:100A00000F920FB60F9211242F933F934F935F9342
:100A10006F937F938F939F93AF93BF93CF93DF9306
:100A2000EF93FF9380911C01C091ED01D0E087FF0F
:100A300024C0109285001092840080911C018F5F69
:100A400080931C0180911C01082E000C990B8C17BF
:100A50009D0724F480911C018C30C4F180918400A6
:100A600090918500049680349C4908F47AC0809166
:100A7000840090918500049676C080911C01082E18
:100A8000000C990B8C179D07C4F6E0911C018E2F6A
:100A9000EE0F990BFC01EE0FFF1FE80FF91FE75354
:100AA000FE4F808186FFC9CFE0911C018E2FEE0F93
:100AB000990BFC01EE0FFF1FE80FF91FE753FE4FE4
:100AC000808160E08F730E942F01B7CF2091840056
:100AD00030918500E0911C018E2FEE0F990BFC01E7
:100AE000EE0FFF1FE80FF91FE753FE4F8181928140
:100AF000820F931F9093890080938800E0911C01DE
:100B00008E2FEE0F990BFC01EE0FFF1FE80FF91F60
:100B1000E753FE4F808186FF11C0E0911C018E2FAC
:100B2000EE0F990BFC01EE0FFF1FE80FF91FE753C3
:100B3000FE4F808161E08F730E942F01FF91EF9142
:100B4000DF91CF91BF91AF919F918F917F916F91E5
:100B50005F914F913F912F910F900FBE0F901F907B
:100B6000189580E49CE990938900809388008FEF2A
:100B700080931C01E3CF1F920F920FB60F921124A6
:100B80002F933F934F935F936F937F938F939F9395
:100B9000AF93BF93EF93FF93E091F001F091F101D8
:100BA00090818091F20198232091F3013091F4011A
:100BB0002F3F320731F02F5F3F4F3093F4012093E6
:100BC000F3018091EE01811135C0911116C0209181
:100BD000F3013091F4012536310558F01092F501FA
:100BE0003093F8012093F70181E08093F601809320
:100BF000EE011092F4011092F3018091DB0281303A
:100C000041F48091DA02911161C061E0811161C00B
:100C10002D9AFF91EF91BF91AF919F918F917F910D
:100C20006F915F914F913F912F910F900FBE0F9059
:100C30001F9018958091EE018130A1F49923E9F27B
:100C4000E091F6018E0F8093F601F0E0EE0FFF1FAA
:100C5000E251FE4F2091F3013091F4013287218758
:100C600082E0C5CF8091EE01823039F5911119C033
:100C7000E091F60181E0E03720F08093F50183E018
:100C8000B6CF8E0F8093F601F0E0EE0FFF1FE2511A
:100C9000FE4F2091F3013091F4013287218781E0EA
:100CA000A6CF2091F3013091F4012536310508F4E7
:100CB000A4CF83E08093EE01A0CF8091EE0183303A
:100CC00009F09BCF992309F494CF97CF882321F083
:100CD00060E00E942F019DCF2D989BCFEF92FF9255
:100CE0000F931F93CF93DF93EC01F62F8A017901C5
:100CF00090E080E030E0E0E0DE01AE0FB11D2C912D
:100D0000222341F0320F2E9F800D911D11241C9241
:100D1000FE1315C0332399F0532F5695850F911D5F
:100D2000632F70E00E946311DE01A60FB11D3C939A
:100D3000D8013C9131110EC06C9390E080E0EF5FE0
:100D4000FE17D0F681E0DF91CF911F910F91FF90B8
:100D5000EF900895D7013C91332371F380E0F3CFF6
:100D600010922F0110922E0188EE93E0A0E0B0E0E7
:100D70008093300190933101A0933201B0933301FD
:100D800084E091E090932D0180932C0185EC90E01C
:100D9000909339018093380184EC90E090933B016B
:100DA00080933A0180EC90E090933D0180933C0168
:100DB00081EC90E090933F0180933E0182EC90E0C3
:100DC000909341018093400186EC90E09093430121
:100DD0008093420110924501109246011092470102
:100DE000109248018EEE91E09093EC028093EB021A
:100DF00080E00E948C001092DA028091ED018C302C
:100E000098F491E0980F9093ED018093D70290E0D1
:100E1000FC01EE0FFF1FE80FF91FE753FE4F88EBB1
:100E20009BE09283818308958FEF8093D70208958A
:100E3000CF93DF93CDB7DEB7E7970FB6F894DEBF59
:100E40000FBECDBF789484B5826084BD84B58160C7
:100E500084BD85B5826085BD85B5816085BD809185
:100E60006E00816080936E001092810080918100FD
:100E700082608093810080918100816080938100F5
:100E8000809180008160809380008091B1008460B7
:100E90008093B1008091B00081608093B000809118
:100EA0007A00846080937A0080917A0082608093D7
:100EB0007A0080917A00816080937A0080917A0034
:100EC000806880937A001092C100E0913C01F0911B
:100ED0003D0112E01083E0913801F0913901108258
:100EE000E0913A01F0913B018FEC80831092440134
:100EF000E0914001F091410186E08083E0913E0164
:100F0000F0913F01808180618083E0913E01F0910A
:100F10003F01808188608083E0913E01F0913F0134
:100F2000808180688083E0913E01F0913F01808163
:100F30008F7D808382E191E00E94500488E191E0FE
:100F40000E9450048BE00E948C001092DA02809183
:100F5000DB0281608093DB0261E08DE00E947B0117
:100F600060E08091EF010E947B011093B00010932C
:100F7000B10084E68093B3008093B4001092B20075
:100F80008091EE01833011F41092EE0184E08093A1
:100F900070008091D7028C3008F051C061E089E088
:100FA0000E947B018091D702282F30E0F901EE0FDB
:100FB000FF1FE20FF31FE753FE4F9081907C996073
:100FC00090831092D8021092D9022CE0622F0E94D6
:100FD0005711829FB001112430E020E0AB01420F95
:100FE000531FFA01EE0FFF1FE40FF51FE753FE4FEB
:100FF000908196FD16C02F5F3F4F2C30310571F761
:1010000081110FC01092800082E0809381001092C5
:10101000850010928400B19A80916F008260809365
:101020006F00E091D7028E2F90E0FC01EE0FFF1FC2
:10103000E80FF91FE753FE4F8081806480839E0193
:101040002F5F3F4F2901B0E26B2E712C8091EE0192
:10105000833009F0F5C08091F501882309F45CC064
:101060001092F5011092F60180E48093E60210924E
:10107000DD021092DC021092E1021092E002109266
:10108000DF021092DE021092E7021092E802109244
:10109000E9021092EA021092E5021092E4028091B5
:1010A000E60286FDA3C0E091EB02F091EC02208500
:1010B000822F8F7B843009F0A9C18385948586585F
:1010C00091098C35910508F0A1C18585968524305C
:1010D00009F049C08197489708F098C187859089A1
:1010E0000897089708F092C181E08093E60280910A
:1010F000EF029091F0029093DF028093DE028091E4
:10110000F3029091F4029093E1028093E0028091C7
:10111000ED029091EE02ACC21092E6028091DC02E8
:101120009091DD029093EE028093ED028091E002B7
:101130009091E102B0E0A0E08093F3029093F4027A
:10114000A093F502B093F6028091DE029091DF0247
:10115000B0E0A0E08093EF029093F002A093F10240
:10116000B093F20284CF825491098F9708F04EC158
:10117000E12C00E312E020E936E040E352E063E0D6
:1011800080E20E941003882309F440C1E091EB0241
:10119000F091EC02E157FF4F808191810897089709
:1011A00008F034C18091E7029091E8024091E90291
:1011B0005091EA02242F30E03093E1022093E002C4
:1011C0009C012E3E67E8360709F0FDC085E190E0FE
:1011D0009093DD028093DC02852F90E09093DF02F4
:1011E0008093DE027092E5026092E4022091E002B8
:1011F0003091E10250E040E019A28E010F5D1F4FD7
:10120000CA01B9012AE030E040E050E00E94F41049
:10121000605DD8016E938D012115310541055105A1
:1012200079F7109719F0CD010E94500488E191E000
:101230000E9450048091EE01833011F41092EE016F
:1012400080E480937C0080917A00806480937A00AF
:1012500080917A0086FDFCCF80917800A091790082
:10126000BA2FA82F24EB30E00E9477112FEF33E044
:1012700040E050E00E941611C9016901203232405D
:101280000CF03DC02091D802E8E8CE2ED12CC21A35
:10129000D10827FDD394CC0CDD1CCC0CDD1C0D2C0F
:1012A000000CEE08FF082091D90248E552E0421BED
:1012B000510927FD5395440F551F440F551F052E07
:1012C000000C660B770B9A01AB012C193D094E09F6
:1012D0005F09DC01853B910514F0A4EBB0E0B7FF9A
:1012E00002C0B0E0A0E00E94401124EB30E040E0FA
:1012F00050E00E941611C20ED31EE41EF51E20916E
:10130000D7022C3078F53091D80288E890E0831B22
:10131000910937FD9395880F991F880F991FC8165B
:10132000D90684F03091D90288E592E0831B9109B7
:1013300037FD9395880F991F880F991FC816D906F6
:101340000CF4C6010297880F991F4FB7F89430E04C
:10135000F901EE0FFF1FE20FF31FE753FE4F9283D9
:1013600081834FBF0E94AC014B015C018FE0C82E0E
:10137000D12CE12CF12C0E94AC01681979098A0961
:101380009B09683E734081059105A8F3F1E0CF1AEF
:10139000D108E108F10828EE820E23E0921EA11C7C
:1013A000B11CC114D104E104F10429F780E090E0FC
:1013B000892B09F44BCE0E943B02882309F443CECB
:1013C0000E94000040CE9095891310C090E0909349
:1013D000DF028093DE02852F809548130CC088E0E1
:1013E00090E09093DD028093DC02FCCE3093DF022C
:1013F0002093DE02F0CF84E190E09093DD028093B1
:10140000DC024093E0025093E102ECCEE091EB026B
:10141000F091EC028085843609F0B5C0838594850F
:10142000C397859708F0AFC0858596854A974397FF
:1014300008F0A9C0E12C00EB11E020E135E040EB21
:1014400051E063E080E10E941003882309F49BC00F
:10145000F090E702CF2CD090E802F9E0AF2EB12C4B
:1014600082E0C81680E2D80619F1EDE0AE2EB12C6C
:101470009AEAC9169AE5D906D9F07CE0A72EB12CD4
:10148000A4E5CA16A2E3DA0699F06BE0A62EB12C09
:10149000B3E0CB16B1E0DB0659F0AEE0AA2EB12CDA
:1014A000E3E2CE16EBECDE0619F05AE0A52EB12CE5
:1014B000FD248F2D82958F70F826FF2DFF70FF2E53
:1014C000E12C00EB11E020E135E040EB51E063E27C
:1014D00080E20E941003882309F455C08091E7023E
:1014E0009091E802A091E902B091EA029C0144E0E7
:1014F000369527954A95E1F73093DF022093DE0277
:101500002A2F30E03093E1022093E002282F2A278F
:101510002927382F3F70F31619F034E03093E60294
:101520003AE0A316B10479F03091E60230613093CD
:10153000E6024091E2025091E302C42AD52AD092F9
:10154000E302C092E2022B1729F08091E602846048
:101550008093E602E091EB02F091EC0281859285A6
:1015600088329A4028F48091E60281608093E602F6
:10157000B092DD02A092DC0280E390E09093E5025D
:101580008093E40233CEE091EB02F091EC0280858F
:10159000803209F075C0EE24E3940CE013E02CE1F6
:1015A00037E044E051E061E08FE00E9410038823BF
:1015B00009F466C0E091EB02F091EC02DF01A95B57
:1015C000BF4F8D919C910497059708F059C080E812
:1015D0008093E6024091E7025091E8026091E902AF
:1015E0007091EA02142F1370DB01CA0102E0B69574
:1015F000A795979587950A95D1F79093DE0210925B
:10160000DF029C0133273093E1022093E002218521
:1016100032852536344088F52091F7022F5F2093DC
:10162000F70240FF11C032E83093E6023091F30236
:101630008095381719F086E88093E602832F90E0B2
:101640009093E1028093E002223028F08091E6023C
:1016500081608093E6028FE090E09093E5028093B2
:10166000E402115082E190E0123010F083E090E04B
:101670009093DD028093DC02B9CD1092F702EBCF9C
:10168000E091EB02F091EC028385948584974A9770
:1016900008F055C020852A3129F02A3219F020326D
:1016A00009F04DC0858596850897089708F047C0D2
:1016B00030E0C901019797FDC9019595879508E527
:1016C00012E028E532E040EB54E063E00E94C10301
:1016D0008823A9F18091E7029091E802A091E902A4
:1016E000B091EA02282F2F77E7E0B695A795979556
:1016F0008795EA95D1F7E091EB02F091EC024185F4
:1017000052854438534018F431E03093E60230E01B
:101710003093E1022093E0029093DF028093DE0297
:10172000208530E0C901019797FDC90195958795FE
:101730009093E5028093E40283E190E099CF81E009
:1017400080932B0189E793E09093290180932801EE
:1017500010922A010E94A900813009F06AC0C12CB0
:10176000D12C760110E0E091EB02F091EC02908533
:1017700080912B018917E0F40E94A900082F0E9494
:10178000A90001110BC0813009F053C0CC0CDD1C45
:10179000EE1CFF1C6894C0F81F5FE5CF013009F014
:1017A00048C0811146C0CC0CDD1CEE1CFF1CF4CFE0
:1017B000812F90E09093E5028093E402C092E702CB
:1017C000D092E802E092E902F092EA028C2D8F7347
:1017D00090E09093E1028093E002960146E0369516
:1017E00027954A95E1F72F7133273093DF02209335
:1017F000DE02960122273071232B31F4805C9F4F4B
:101800009093E1028093E00280E88093E602D3FEA9
:1018100003C088E88093E60281859285833E9840E4
:1018200028F48091E60281608093E6028FE090E0E8
:101830001FCFE091EB02F091EC02838594858897AD
:101840004D9708F046C0858596850C970B9708F054
:1018500040C083E080932B018CEB91E090932901B1
:101860008093280110922A010E94A900813089F5F5
:101870000E94A900182F81112CC0C12CD12C7601F7
:10188000E091EB02F091EC02908580912B01891799
:1018900008F071C00E94A900B82E1330B1F00E9468
:1018A000A900082F133021F40E94A900081311C0C9
:1018B000B1E0BB1256C001110CC0CC0CDD1CEE1CFB
:1018C000FF1C6894C0F81F5FDBCF0E94A900B81608
:1018D00031F3E091EB02F091EC0220852C3311F012
:1018E000243051F4838594858638910508F48CC0A2
:1018F000833E910508F4A5C0E091EB02F091EC0263
:101900008085843209F40AC1823209F035C18185AB
:1019100092858C3E9C4508F069CC83859485089718
:10192000079708F063CCE55BFF4F808191810897B2
:10193000079708F05BCC81E08093E6028091EF028C
:101940009091F0029093DF028093DE028091F30287
:101950009091F4029093E1028093E00285E090E0A0
:1019600087CEB110B6CF013009F0B3CFCC0CDD1C5F
:10197000EE1CFF1CA8CF812F90E09093E50280938E
:10198000E402C092E702D092E802E092E902F0920B
:10199000EA022C2D30E08D2D1432F8F480E880938B
:1019A000E6023093E1022093E0028D2D90E09093C7
:1019B000DF028093DE02E0FE03C088E88093E60247
:1019C0008185928583379A4028F48091E602816070
:1019D0008093E60280E190E04BCE90E99093E6029E
:1019E000D7FE03C098E99093E6023093E10220937A
:1019F000E0028F7790E09093DF028093DE02F09216
:101A0000E302E092E202DCCF8D32910508F474CF5C
:101A10006CE175E2B7E0CB2ED12C8D34910508F046
:101A20006BCF85859685243091F44D97469708F0C5
:101A300063CF878590890797089708F05DCF81E885
:101A400054CB68E670E1A6E0CA2ED12CEACF0E9402
:101A5000DE02882309F450CFEE24E39406E212E07C
:101A60002CE236E044EF51E063E08CE10E94100389
:101A7000882309F441CFE091EB02F091EC02E158A8
:101A8000FF4F808191810797089708F035CF80E854
:101A90008093E6028091E7029091E802A091E9022A
:101AA000B091EA028C019D0144E036952795179587
:101AB00007954A95D1F7B8011093E1020093E0022F
:101AC0008C019D0154E136952795179507955A95F8
:101AD000D1F71093DF020093DE0244E050E020E0F3
:101AE000362F3F70230F14E0769567951A95E1F72E
:101AF00041505109A9F782278F709927AA27BB2740
:101B0000892B8A2B8B2B19F084E88093E602D092E4
:101B1000DD02C092DC028CE190E030CD83859485BB
:101B20008D5791098735910538F585859685CE972E
:101B30008C9710F5E12C0EE012E02AE236E04EE040
:101B400052E063E080E10E9410038823A9F08091B5
:101B5000E7022091E80230E03093E1022093E002B6
:101B600090E09093DF028093DE0280E190E090931A
:101B7000E5028093E402F2CEE091EB02F091EC02F8
:101B80008085982F9F7D943419F0863009F08DC0A0
:101B900023853485225431092F32310508F085C060
:101BA00025853685215431092F32310508F07DC055
:101BB0008630B1F481E08093E6028091EF0290914B
:101BC000F0029093DF028093DE028091F302909105
:101BD000F4029093E1028093E00281E190E048CD2D
:101BE000E12C09E212E02BE736E049E252E063E043
:101BF0008436B9F580E10E941003882309F455C0AA
:101C00008091E7029091E8029093DF028093DE02D8
:101C10002BE736E049E252E063E080E20E941003E5
:101C2000882309F442C09091E7023091E8022091A4
:101C3000E9028091EA022095821731F0909593177E
:101C400019F094E09093E602982F832F9093E1028D
:101C50008093E00280E390E09093E5028093E402B9
:101C6000BCCF80E20E9410038823F9F08091E90242
:101C70003091EA022091E7029091E8022093DE027F
:101C80009093DF02932F909589130AC090E0909370
:101C9000E1028093E0027092E5026092E4029DCF3F
:101CA0008093E0023093E102F6CFE091EB02F091F5
:101CB000EC02838594852085243459F50B970A9787
:101CC00040F5858596858A974E9718F5EE24E3941E
:101CD0000EEE12E026E638E04EEE52E063E080E2DF
:101CE0000E9410038823A9F0E091EB02F091EC022E
:101CF000E157FF4F808191810B970A9750F480E85C
:101D00008093E6027092E5026092E40289E190E03D
:101D1000AFCCE091EB02F091EC02208583859485B5
:101D20000297049708F061C0243209F05EC08585EF
:101D300096850F970C9708F058C0EE24E39407E0BF
:101D400011E029E232E04EE950E063E080E10E94D8
:101D50001003882309F449C0E091EB02F091EC02F2
:101D6000DF01A15BBF4F8D919C9102970497E8F52D
:101D700080E88093E6024091E7029091E802242FE8
:101D8000392F592F52955F709F70A4E03695279593
:101D9000AA95E1F72F704F708FE08527892782275A
:101DA000481719F084E88093E60261857285683FE0
:101DB000714128F48091E60282608093E60250939C
:101DC000DE021092DF0260E1969FC0011124822B97
:101DD0009093E1028093E00287E190E09093DD022E
:101DE0008093DC0280E190E0C9CBE091EB02F091BE
:101DF000EC022085838594850F970C97B8F52432E3
:101E0000A9F5858596854597419780F5E12C04EDE8
:101E100011E02CEB35E048E052E063E080E10E9405
:101E20001003882319F1E091EB02F091EC02DF013D
:101E3000A15BBF4F8D919C9108970797B8F4809153
:101E4000E7029091E80298279F3F81F4218532852F
:101E5000223E344018F491E09093E60290E0909393
:101E6000E1028093E00286E190E0B8CFE090EB02DF
:101E7000F090EC02D70118968C91803709F053C08E
:101E800067011701BCED2B0E311C20E030E040E073
:101E900010E000E0912C812C1FAAD6011B96ED9139
:101EA000FC911C971D96AD90BC90C501BF010E948E
:101EB0006311DB01EA0DFB1D71973E97B8F5512FB9
:101EC000602F792D882D9FA901E00E947E11E32FBC
:101ED000F42F152F062F972E882E9FAB129708F4FC
:101EE000216084E0C80ED11C2C143D04B1F688E1B9
:101EF00090E09093DD028093DC0287E390E0909382
:101F0000E5028093E40280E18093E6022093E202FE
:101F1000E093E302F093E7025093E8026093E90252
:101F20007093EA0263C9843108F4E8C082E3F201E5
:101F300011928A95E9F7D70118962C912250330B0C
:101F400060E044E0842F90E0821793079CF4880FB0
:101F5000991FF701E80FF91F8185823348F4F201D8
:101F6000E80FF11D90819F5F9083681708F4682F38
:101F70004E5FE8CF1EAA1DAA9E012B5C3F4FAE010B
:101F80004A5C5F4FC2010E946E06882309F4B6C006
:101F900082E3F20111928A95E9F7A091EB02B091E8
:101FA000EC0218962C9118972250330B60E043E016
:101FB000842F90E0821793079CF4880F991FFD01EE
:101FC000E80FF91F8185823348F4F201E80FF11D13
:101FD00090819F5F9083681708F4682F4E5FE8CF69
:101FE0001CAA1BAA9E012D5C3F4FAE014C5C5F4FAB
:101FF000C2010E946E06E091EB02F091EC02F084C7
:10200000F6948F2D90E09C01225031093093E50227
:102010002093E402039755E0969587955A95E1F74A
:10202000D82E8DA9811135C08BA9882309F466C0EB
:10203000FA94FA9433E0C32EE12C42E3B42E0EA9B5
:102040000B9D800111242CA92B9D900111244BA9DB
:102050004B9DA00111248F2DF0E2FF1508F480E2C2
:102060006C2D0E94C103882309F448C020E4C20EED
:10207000E39430EEF30EDE1410F78CA99BA98927A8
:10208000982789279093E3028093E20282E090E010
:10209000EFCAFA94FA9493E0B92EC12C22E3A22E4F
:1020A0000EA90A9D800111242DA92A9D90011124B9
:1020B0004CA94A9DA00111248F2D60E26F1508F4F0
:1020C00080E2E12C6B2D0E9410038823B9F080E49C
:1020D000B80EC39490EEF90EDC1410F78EA99DA9EA
:1020E0008927982789279093E3028093E202A1E051
:1020F000B0E0B093DD02A093DC0278C8E090EB0280
:10210000F090EC02F7010085063008F46FC8DD247A
:10211000D39425EC3DE94CE151E810E08AE0C82E6B
:102120008D2D90E0BC016E5F7F4F60177107DCF56D
:10213000660F771FF701E60FF71F61857285880F1D
:10214000991FF701E80FF91F81859285C69ED0017E
:10215000C79EB00D1124FC01EE0FFF1FEE0FFF1FF5
:10216000EE0FFF1FAE17BF07D0F0C89EF001C99E4B
:10217000F00D1124CB01B3E0880F991FBA95E1F758
:10218000E817F90770F4E2E063E971E080E091E0BC
:102190000E94E4109B01AC012E27D394C1CFE0E054
:1021A000F3CFE1E0F1CF2093E7023093E8024093D0
:1021B000E9025093EA027092E5026092E402109202
:1021C000DD021092DC0212C8DB018F939F930E9404
:1021D0003511BF91AF91A29F800D911DA39F900DCE
:1021E000B29F900D11240895A1E21A2EAA1BBB1BC9
:1021F000FD010DC0AA1FBB1FEE1FFF1FA217B307D3
:10220000E407F50720F0A21BB30BE40BF50B661FE8
:10221000771F881F991F1A9469F7609570958095AC
:1022200090959B01AC01BD01CF010895052E97FB50
:102230001EF400940E942D1157FD07D00E94F41047
:1022400007FC03D04EF40C942D1150954095309519
:1022500021953F4F4F4F5F4F089590958095709512
:1022600061957F4F8F4F9F4F08950E944811A59F02
:10227000900DB49F900DA49F800D911D1124089581
:10228000B7FF0C9435110E943511821B930B0895F2
:10229000A29FB001B39FC001A39F700D811D1124A7
:1022A000911DB29F700D811D1124911D0895991BE0
:1022B00079E004C0991F961708F0961B881F7A953D
:1022C000C9F780950895AA1BBB1B51E107C0AA1F3F
:1022D000BB1FA617B70710F0A61BB70B881F991FC7
:1022E0005A95A9F780959095BC01CD0108950E945B
:1022F0004811B7FF0895821B930B0895002E0830F4
:1023000090F0982F872F762F652F542F432F322F41
:1023100022270850F4CF220F331F441F551F661F7A
:10232000771F881F991F0A95B2F7002D0895EE0FA9
:0E233000FF1F0590F491E02D0994F894FFCF63
:10233E00000000007102D101FE01BE022F020D024B
:0C234E00210248656C6C6F000D0A000055
:00000001FF
